:100000000C94181B0C94491B0C94491B0C94491B11
:100010000C94491B0C94491B0C94491B0C94491BD0
:100020000C94491B0C94491B0C94491B0C94491BC0
:100030000C94491B0C9409830C94491B0C94491B88
:100040000C94491B0C944BF20C94491B0C94491BC7
:100050000C94491B0C94491B0C94A7BD0C94359A25
:100060000C94491B0C94C9BC0C94491B0C94491B5F
:100070000C94491B0C94491B0C94491B0C94491B70
:100080000C94491B0C94491B0C94491B0C94491B60
:100090000C94491B0C94491B0C94491B0C94491B50
:1000A0000C94491B0C94491B0C94491B0C94491B40
:1000B0000C94491B0C94491B0C94491B0C94491B30
:1000C0000C94491B0C94491B0C94491B0C94491B20
:1000D0000C94491B0C94491B0C94491B0C94491B10
:1000E0000C94491B04010401FE00FE00FE00060101
:1000F000060106010001FC00FC00FC0093DC96DC1C
:1001000085DC89DC8FDCCDDC9ADC9EDCA4DCA8DC21
:10011000ACDCB2DCB6DCBADCCDDCC0DCC4DCC8DC18
:100120006EDF73DF78DF82DF8CDF05E096DF9EDF36
:10013000A6DFB0DFBADFC4DFD3DFDDDF05E0E7DF56
:10014000F1DFFBDF4FFEBEFCF7FC8BFEF7FCF7FC9C
:10015000F7FCF7FCF7FCF7FCF7FCF7FCF7FCF7FC07
:10016000F7FCF7FCF7FCF7FCF7FCF7FCF7FCF7FCF7
:10017000F7FCF7FCF7FCF7FCF7FCF7FCF7FCF7FCE7
:1001800085FEF7FCF7FCF7FCF7FCF7FCF7FCF7FC47
:10019000F7FC5EFEF7FCF7FCF7FCF7FCF7FCF7FC5E
:1001A000F7FCF7FCF7FCF7FCA2FEF4FC084AD73B8F
:1001B0003BCE016E84BCBFFDC12F3D6C74319ABD36
:1001C00056833DDA3D00C77F11BED9E4BB4C3E915A
:1001D0006BAAAABE000000803F05A84CCDB2D44E49
:1001E000B93836A9020C50B9918688083CA6AAAA4B
:1001F0002ABE000000803F000D942D0C0D941F0CB2
:100200000D94330C0D94A0100D94180C0D94260C25
:100210000D94AE094E414E494E495459494E46CD72
:10022000CCCC3D0AD7233C17B7D13877CC2B3295AD
:1002300095E6241FB14F0A000020410000C842008B
:10024000401C4620BCBE4CCA1B0E5AAEC59D744312
:100250004F4D4D554E49434154494F4E004452591C
:1002600052554E004552524F525300494E464F0090
:100270004543484F00536C6565702E2E2E00486F25
:100280006D652058592066697273740A00486F6D55
:100290006520585920666972737400205A3A20000C
:1002A00020593A200042656420583A20004D657379
:1002B0006820706F696E742063616E6E6F74206267
:1002C00065207265736F6C7665640A00436C6963C0
:1002D0006B20746F20726573756D652E2E2E004E27
:1002E0006F206D6F76652E00456E642066696C65C3
:1002F000206C6973740A00426567696E2066696CD8
:1003000065206C6973740A00286E6F2066696C65DD
:10031000290043757272656E742066696C653A20B7
:10032000005344207072696E74696E67206279743C
:100330006520004E6F74205344207072696E74699A
:100340006E670A0044656C6574696F6E206661694A
:100350006C65642C2046696C653A200046696C65C2
:100360002064656C657465643A00256973002569CD
:100370006D20256973002569682025696D20256930
:100380007300256964202569682025696D20256929
:10039000730025697920256964202569682025690D
:1003A0006D20256973005072696E742074696D65E3
:1003B0003A20006F66660070026B0264025D024FB5
:1003C0000244454255473A004B494C4C45442E2087
:1003D000004D3131332053006F6B00427572702035
:1003E00056322E30204F66662E00544845524D41FD
:1003F0004C5F50524F54454354494F4E0041555461
:100400004F5245504F52545F53445F5354415455DB
:100410005300454D455247454E43595F5041525355
:10042000455200434153455F4C494748545F42524F
:10043000494748544E45535300544F47474C455F36
:100440004C494748545300534F4654574152455F17
:10045000504F574552004255494C445F5045524316
:10046000454E54004C4556454C494E475F44415417
:1004700041005A5F50524F4245004155544F4C4540
:1004800056454C005052494E545F4A4F420050521C
:100490004F4752455353004155544F5245504F52C8
:1004A000545F54454D5000564F4C554D455452499C
:1004B0004300454550524F4D0053455249414C5F12
:1004C000584F4E5F584F4646004649524D5741528D
:1004D000455F4E414D453A4D61726C696E206275C3
:1004E000676669782D322E302E7820284769746827
:1004F00075622920534F555243455F434F44455F32
:1005000055524C3A68747470733A2F2F6769746847
:1005100075622E636F6D2F4D61726C696E466972E4
:100520006D776172652F4D61726C696E2050524F0C
:10053000544F434F4C5F56455253494F4E3A312E1C
:1005400030204D414348494E455F545950453A4249
:100550007572702056322E302045585452554445FD
:10056000525F434F554E543A3120555549443A63F2
:10057000656465326132662D343161322D34373431
:10058000382D396231322D63353563363266333674
:100590003766660A002F2F20007A5F6D696E3A2059
:1005A00000795F6D696E3A2000785F6D696E3A2060
:1005B000005265706F7274696E6720656E64737443
:1005C0006F70207374617475730A004D3134352077
:1005D000533C696E6465783E206F7574206F6620A9
:1005E00072616E67652028302D31290A0020540081
:1005F000205200416363656C65726174696F6E3A85
:1006000020500020466C6F773A200050726F74655E
:10061000637465642050696E0A0050726F626520D1
:100620005A204F66667365743A200020643A0020B1
:10063000693A0020703A00496E76616C6964206501
:10064000787472756465720A0020643A0020693A11
:100650000020703A0043290A0061626C656420281A
:100660006D696E2074656D702000436F6C64206549
:10067000787472756465732061726520004D6573CE
:100680006820706F696E742063616E6E6F74206293
:1006900065207265736F6C7665640A004D34323183
:1006A00020696E636F727265637420706172616D30
:1006B000657465722075736167650A004F666673BD
:1006C000657473206170706C696564004572723A7C
:1006D00020546F6F206661722100546F6F20666135
:1006E000722066726F6D207265666572656E6365F5
:1006F00020706F696E740A00454550524F4D204F6F
:100700004B0A003F5A206F7574206F662072616E2D
:10071000676520282D323020746F203230290A007E
:100720003A200050726F6265205A204F66667365EA
:1007300074003F4B2076616C7565206F7574206F77
:10074000662072616E67652028302D3130292E0AAF
:1007500000416476616E6365204B3D004E6F2063FF
:10076000617365206C696768740A00496E76616C14
:1007700069642065787472756465720A00416374F7
:100780006976652045787472756465723A20002434
:10079000F4D43050C38E20C2A24017828B70111245
:1007A0007A910D816CD90AA861E108C75866076182
:1007B0005143061E4B5D05C145A7041A41110409AA
:1007C0003D9803713931034036DB0265339102D421
:1007D000305402802E1D02632CEE01752AC501B033
:1007E00028A001102781018F2564012B244B01E0F3
:1007F000223401AC211F018D200D01801FFC0084DB
:100800001EED00971DDF00B81CD200E61BC60020BD
:100810001BBC00641AB200B219A8000A19A0006A31
:10082000189900D117910040178B00B5168400313C
:10083000167E00B31579003A157300C7146F00587F
:10084000146A00EE1366008813630025135E00C768
:10085000125B006C12570015125400C11151007048
:10086000114F0021114B00D61049008D1047004652
:1008700010440002104200C00F4000800F3E0042B2
:100880000F3C00060F3B00CB0E3800930E37005C88
:100890000E3500270E3400F30D3200C10D310090EB
:1008A0000D3000600D2E00320D2D00050D2C00D9ED
:1008B0000C2B00AE0C2900850C29005C0C270035A0
:1008C0000C27000E0C2600E80B2400C40B2400A00B
:1008D0000B23007D0B23005A0B2100390B2100183C
:1008E0000B2000F80A1F00D90A1E00BB0A1E009D3B
:1008F0000A1D00800A1D00630A1C00470A1B002C09
:100900000A1B00110A1A00F7091A00DD091900C4B0
:10091000091900AB091900920917007B0918006337
:100920000917004C09160036091600200916000A9E
:10093000091500F5081500E0081400CC081400B8EB
:10094000081400A4081400900813007D0812006B1E
:10095000081300580812004608120034081100233A
:100960000811001208110001081100F0071000E042
:10097000071000D0071000C0071000B0070F00A13B
:1009800007100091070E0083070F0074070F006522
:10099000070E0057070E0049070E003B070D002EFB
:1009A000070E0020070D0013070D0006070D00F9C4
:1009B000060C00ED060D00E0060C00D4060C00C885
:1009C000060C00BC060C00B0060C00A4060B009937
:1009D000060C008D060B0082060B0077060B006CE0
:1009E000060B0061060A0057060B004C060A00427F
:1009F000060A0038060A002E060A0024060A001A13
:100A0000060A001006090007060A00FD050900F4A1
:100A1000050900EB050900E2050900D9050900D028
:100A2000050900C7050900BE050900B5050800ADA8
:100A3000050800A50509009C050800940508008C20
:100A4000050800840508007C050800740508006C92
:100A5000050700650508005D050700560508004EFE
:100A60000507004705070040050800380507003165
:100A70000507002A050700230507001C05060016C8
:100A80000507000F0507000805060002050700FB23
:100A9000040600F5040700EE040600E8040600E280
:100AA000040700DB040600D5040600CF040600C9D5
:100AB000040600C3040600BD040600B7040600B126
:100AC000040500AC040600A6040600A00405009B73
:100AD00004060095040500900406008A04050085BC
:100AE000040500800406007A040500750405007002
:100AF0000405006B04050066040500610405005C44
:100B000004050057040500520405004D0405004883
:100B1000040500430405003E0404003A04050035C2
:100B2000040500300404002C0405002704040023FD
:100B30000405001E0404001A040400160405001134
:100B40000404000D0404000904050004040400006A
:100B5000040400FC030400F8030400F4030400F0A0
:100B6000030400EC030400E8030400E4030400E0D1
:100B7000030400DC030400D8030400D4030400D001
:100B8000030400CC030400C8030300C503030024CE
:100B9000F404D9201BC40C5C0E9804C4095F0265E0
:100BA000077101F405F900FB04B30048048700C194
:100BB0000369005803550003034500BE023A008450
:100BC00002310053022A002902250004022000E419
:100BD000011C00C8011900AF01170098011400841E
:100BE000011300710110006101100051010E00435A
:100BF000010D0036010B002B010B0020010B00152D
:100C00000109000C01090003010800FB000800F3C2
:100C1000000800EB000700E4000600DE000600D834
:100C2000000600D2000600CC000500C7000500C287
:100C3000000500BD000400B9000400B5000400B1C7
:100C4000000400AD000400A9000400A5000300A2F8
:100C50000003009F0004009B000300980003009520
:100C600000020093000300900003008D0002008B3F
:100C70000003008800020086000200840003008157
:100C80000002007F0002007D0002007B000200796C
:100C9000000200770001007600020074000200727A
:100CA000000100710002006F0002006D0001006C85
:100CB0000002006A0001006900020067000100668E
:100CC0000001006500010064000200620001006193
:100CD000000100600001005F0002005D0001005C97
:100CE0000001005B0001005A00010059000100589A
:100CF000000100570001005600010055000100549A
:100D00000001005300000053000100520001005197
:100D1000000100500001004F0001004E0000004E95
:100D20000001004D0001004C0001004B0000004B91
:100D30000001004A0001004900010048000000488D
:100D40000001004700010046000000460001004588
:100D50000000004500010044000100430000004382
:100D6000000100420000004200010041000000417B
:100D7000000100400001003F0000003F0001003E74
:100D80000000003E0001003D0000003D0001003C6D
:100D90000000003C0000003C0001003B0000003B64
:100DA0000001003A0000003A00010039000000395B
:100DB0000001003800000038000000380001003752
:100DC0000000003700010036000000360000003649
:100DD000000100350000003500000035000100343E
:100DE0000000003400000034000100330000003334
:100DF0000000003300010032000000320000003229
:100E0000000100310000003100000031000100301D
:100E100000000030000000300001002F0000002F13
:100E20000000002F0000002F0001002E0000002E07
:100E30000000002E0001002D0000002D0000002DFC
:100E40000000002D0001002C0000002C0000002CF0
:100E50000000002C0001002B0000002B0000002BE4
:100E60000000002B0001002A0000002A0000002AD8
:100E70000000002A000100290000002900000029CC
:100E800000000029000000290001002800000028BF
:100E900000000028000000280000002800010027B2
:100EA00000000027000000270000002700000027A6
:100EB0000001002600000026000000260000002699
:100EC000000000260001002500000025000000258C
:100ED000000000250000002500000025000100247E
:100EE0000000002400000024000000240000002472
:100EF0000001002300000023000000230000002365
:100F00000000002300000023000000230001002255
:100F10000000002200000022000000220000002249
:100F2000000000220001002100000021000000213B
:100F3000000000210000002100000021000000212D
:100F40000001002000000020000000200000002020
:100F50000000002000000020000000200000002011
:100F60000001001F0000001F0000001F0000001F04
:100F70000000001F0000001F0000001F0001001EF5
:100F80000000001E0000001E0000001E00000023E4
:100F90002C0000B8220000561800003A0F0000B8DC
:100FA000080000B1040000710200003E0100005280
:100FB0006573656E643A20004B494C4C45442E20C5
:100FC0000053544F505045442E20005072696E74A7
:100FD00065722073746F7070656420647565207429
:100FE0006F206572726F72732E2046697820746864
:100FF00065206572726F7220616E64207573652062
:101000004D39393920746F20726573746172742E92
:10101000202854656D7065726174757265206973FE
:101020002072657365742E20536574206974206185
:10103000667465722072657374617274696E672973
:101040000A004E6F20436865636B73756D20776986
:101050007468206C696E65206E756D6265722C20F7
:101060004C617374204C696E653A20004E6F2043CA
:101070006865636B73756D2077697468206C696E41
:1010800065206E756D6265722C204C617374204C06
:10109000696E653A2000636865636B73756D206DDA
:1010A00069736D617463682C204C617374204C69A2
:1010B0006E653A20004C696E65204E756D626572F2
:1010C000206973206E6F74204C617374204C696EBC
:1010D00065204E756D6265722B312C204C617374E6
:1010E000204C696E653A20004D313130004D33316E
:1010F0000053442072656164206572726F720A0049
:10110000446F6E65207072696E74696E67206669DF
:101110006C650A0020573A004520436F6F6C696E7A
:10112000672E2E2E00452048656174696E672E2E4D
:101130002E0020573A0042656420636F6F6C696E21
:10114000672E2E2E004265642068656174696E67A3
:101150002E2E2E004B64200023646566696E652088
:1011600044454641554C545F004B6920002364655B
:1011700066696E652044454641554C545F004B708E
:10118000200023646566696E652044454641554CE0
:10119000545F00504944204175746F74756E65202A
:1011A00066696E697368656421205075742074687F
:1011B00065206C617374204B702C204B6920616E2C
:1011C00064204B6420636F6E7374616E7473206669
:1011D000726F6D2062656C6F7720696E746F20434B
:1011E0006F6E66696775726174696F6E2E680A004A
:1011F000504944204175746F74756E65206661694D
:101200006C6564212074696D656F75740A004531E1
:1012100020544845524D414C2052554E415741595A
:101220000042454420544845524D414C2052554EB1
:101230004157415900546865726D616C2052756E5A
:10124000617761790045312048656174696E672076
:101250006661696C656400426564206865617469F3
:101260006E67206661696C65640048656174696ECB
:1012700067206661696C656400504944204175745B
:101280006F74756E65206661696C656421205465B4
:101290006D706572617475726520746F6F20686916
:1012A00067680A00204B643A2000204B693A20000E
:1012B000204B703A20000A20436C617373696320ED
:1012C000504944200A002054753A2000204B753ABA
:1012D0002000206D61783A2000206D696E3A200070
:1012E00020643A200020626961733A20005049442A
:1012F000204175746F74756E652073746172740A21
:1013000000504944204175746F74756E65206661A4
:10131000696C65642120426164206578747275642B
:101320006572206E756D6265720A0020746F6F20A1
:101330006C6F6E6720657874727573696F6E20705C
:10134000726576656E7465640A0020636F6C642054
:10135000657874727573696F6E2070726576656EEC
:101360007465640A002020202020200020202020F6
:101370000009200000000000000000000000000044
:101380003FFFF000000000000000000000000038F7
:10139000007000000000000000000000000030FCB1
:1013A0003000000000000000000000000020FC10E1
:1013B0000000000000000000000000002078100085
:1013C00000000000000000000000002030100000BD
:1013D000000000000000000000002C00D03FC00012
:1013E0000000000000002082002E31D07FE00000CD
:1013F00000000000001041002F7BD07FE0000000C3
:10140000000000001041002F7BD07FE000000000B2
:101410000000002082002E31D03FC00000000000FC
:1014200000004104002C00D03FC00000000000007C
:10143000008208002030107FE00000000000000063
:101440008208002078107FE00000000000000041CA
:10145000040020FC107FE00000000000000020825B
:101460000030FC301F800000000000000000000081
:101470003800700F0000000000000000FFFFC03FB8
:10148000FFF0060000000000000000FFFFC00000A9
:10149000000000000000000000000000003FFFF01E
:1014A0000000000000000000000000003800700094
:1014B0000000000000000000000000318630000045
:1014C0000000000000000000000023871000000062
:1014D00000000000000000000027879000000000CE
:1014E00000000000000000002F87D0000000000076
:1014F000000000000000002F03D03FC000000000EB
:101500000000002082002030107FE000000000007A
:1015100000001041002078107FE000000000000073
:10152000001041002078107FE00000000000000063
:101530002082002030103FC0000000000000004169
:1015400004002F03D03FC00000000000000082080C
:10155000002F87D07FE0000000000000008208001C
:101560002787907FE0000000000000004104002376
:1015700087107FE00000000000000020820031861C
:10158000301F8000000000000000000000380070E4
:101590000F0000000000000000FFFFC03FFFF0064A
:1015A0000000000000000000FFFFC00000004361D9
:1015B0006E6E6F74206F70656E20737562646972F1
:1015C00020006563686F3A004534004533004532BA
:1015D000004531004530005A32005932005832007F
:1015E0005A005900580042696C696E656172204C5E
:1015F0006576656C696E6720477269643A0A0025F2
:10160000753A2530327500253032753A25303275FD
:101610000025756420253032753A2530327500E496
:1016200015E215E015DD15DA15D715D415D115CE4F
:1016300015CB15C81566616C73650074727565000D
:101640002074656D70657261747572652070726565
:101650007761726E207472696767657265643A209B
:10166000002063757272656E7420646563726561D3
:1016700073656420746F20006D41290A0020647234
:1016800069766572206F76657274656D70657261DA
:1016900074757265207761726E696E67212028000B
:1016A0003A2000447269766572206572726F72002A
:1016B00073686F727420746F2067726F756E642028
:1016C00028636F696C2042290A0073686F72742066
:1016D000746F2067726F756E642028636F696C2069
:1016E00041290A006F76657274656D706572617468
:1016F0007572650A0020647269766572206572727F
:101700006F722064657465637465643A0A00457895
:10171000747275646572004D6F7665205A004D6F66
:1017200076652059004D6F76652058004D6F7469BD
:101730006F6E00496E697469616C697A6520454510
:1017400050524F4D00416476616E6365642053656D
:101750007474696E6773004C6F6164207365747490
:10176000696E677300526573746F72652066616994
:101770006C736166650053746F7265207365747471
:10178000696E6773005072656865617420414253E9
:1017900020636F6E66005072656865617420504CFE
:1017A0004120636F6E6600416476616E63656420FC
:1017B00053657474696E6773004D61696E00507291
:1017C00065686561742041425300507265686561C7
:1017D0007420504C4100436F6F6C646F776E00460D
:1017E000616E2073706565640046616E207370657C
:1017F00065640046616E20737065656400426564CF
:101800000042656400426564004E6F7A7A6C650040
:101810004E6F7A7A6C65004E6F7A7A6C65004D6116
:10182000696E005049442D44005049442D440050F5
:1018300049442D49005049442D49005049442D50F8
:10184000005049442D500020082046616374002058
:10185000082046616374002008204D61780020084C
:10186000204D6178002008204D6178002008204D2F
:10187000696E002008204D696E002008204D696EB9
:10188000004F6666004F6E20004175746F74656D81
:101890007000416476616E63656420536574746999
:1018A0006E67730053746F72652073657474696E2C
:1018B0006773004265640042656400426564004EDF
:1018C0006F7A7A6C65004E6F7A7A6C65004E6F7A2B
:1018D0007A6C650046616E207370656564004661D0
:1018E0006E2073706565640046616E207370656577
:1018F0006400436F6E66696775726174696F6E002C
:1019000000060C00FE07022903BF017FFE08FE0847
:10191000FE05080806000040F0C888889878100581
:101920000808060000C0F88888888888F80505053A
:101930000600012030F8302005080806000020705D
:10194000F820202020E00509090600FF2070A8A843
:10195000B8888870200509090600FFE080C0B0A89B
:10196000283028280509090600FFF8A888888888F3
:1019700088A8F8050A0A0600FE205050505088A892
:10198000A8887003030306000340A040FFFFFFFF89
:10199000FFFFFFFFFFFFFFFFFFFFFFFFFFFFFFFF57
:1019A000FFFF0000000605FF010707060200808018
:1019B0008080800080030303060105A0A0A0050627
:1019C0000606000050F85050F8500509090600FFBF
:1019D0002070A8A07028A87020050707060000C87E
:1019E000C8102040989805070706000040A0A040B6
:1019F000A890680103030602058080800309090698
:101A000001FF2040408080804040200309090601FA
:101A1000FF8040402020204040800507070600004E
:101A200020A8702070A8200505050600012020F8D8
:101A300020200203030601FFC040800501010600CB
:101A400003F8020202060100C0C0050707060000F5
:101A50000810102040408005070706000070889895
:101A6000A8C8887003070706010040C040404040F6
:101A7000E0050707060000708808102040F80507F9
:101A800007060000F80810300888700507070600F0
:101A90000010305090F81010050707060000F8807D
:101AA000F008088870050707060000304080F088BD
:101AB0008870050707060000F80810102020200590
:101AC0000707060000708888708888700507070679
:101AD000000070888878081060020505060100C0C3
:101AE000C000C0C00206060601FFC0C000C04080A2
:101AF0000305050601012040804020050303060080
:101B000002F800F803050506010180402040800529
:101B10000707060000708810202000200507070630
:101B200000007088B8A8B88070050707060000702C
:101B30008888F8888888050707060000F0484870FC
:101B40004848F0050707060000708880808088708C
:101B5000050707060000F04848484848F005070711
:101B6000060000F88080F08080F805070706000076
:101B7000F88080F08080800507070600007088806C
:101B800080988870050707060000888888F888888C
:101B900088030707060100E04040404040E0050799
:101BA00007060000381010101090600507070600A7
:101BB000008890A0C0A090880507070600008080DC
:101BC00080808080F805070706000088D8A88888EC
:101BD00088880507070600008888C8A898888805AF
:101BE0000707060000708888888888700507070640
:101BF0000000F08888F080808005070706000070EC
:101C0000888888A89068050707060000F08888F093
:101C1000A09088050707060000708880700888700B
:101C2000050707060000F8202020202020050707D0
:101C300006000088888888888870050707060000E5
:101C40008888888850502005070706000088888803
:101C500088A8A850050707060000888850205088EB
:101C600088050707060000888850202020200507E7
:101C700007060000F80810204080F8030909060153
:101C8000FFE080808080808080E0050707060000FC
:101C9000804040201010080309090601FFE02020C1
:101CA0002020202020E005030306000520508805A1
:101CB00001010600FEF8030303060105804020052C
:101CC00005050600007008788878050707060000FB
:101CD0008080F0888888F005050506000070808007
:101CE0008870050707060000080878888888780546
:101CF00005050600007088F08070050707060000E3
:101D0000304840E04040400507070600FE708888E4
:101D1000887808700507070600008080F0888888AA
:101D2000880307070601004000C0404040E0040966
:101D3000090601FE10003010101010906005070712
:101D400006000080808890E0908803070706010065
:101D5000C04040404040E0050505060000D0A8A86E
:101D6000A8A8050505060000B0C8888888050505EF
:101D700006000070888888700507070600FEF08856
:101D80008888F080800507070600FE7888888878B4
:101D90000808050505060000B0C880808005050517
:101DA00006000078807008F0050707060000202074
:101DB000F820202018050505060000888888986806
:101DC00005050506000088888850200505050600E1
:101DD000008888A8A85005050506000088502050F6
:101DE000880507070600FE88888850204080050582
:101DF00005060000F8102040F80309090601FF203D
:101E000040404080404040200109090602FF808098
:101E1000808080808080800309090601FF80404027
:101E200040204040408005030306000248A890FF80
:101E3000290A002062797465733B20637263200075
:101E400053657474696E67732053746F7265642090
:101E50002800024F66660A0046616465204865698D
:101E60006768742000426564204C6576656C696E15
:101E70006720004661696C656420746F20656E613F
:101E8000626C6520426564204C6576656C696E679E
:101E90000A00202844525952554E29004732392011
:101EA0004175746F20426564204C6576656C696E7F
:101EB00067003F20284C2C522C462C4229206F755D
:101EC00074206F6620626F756E64732E0A003F285F
:101ED00056296572626F7365206C6576656C206942
:101EE0007320696D706C61757369626C6520283050
:101EF0002D34292E0A00426164205A2076616C75C7
:101F0000650A004E6F2062696C696E6561722067B8
:101F10007269640A005741524E494E4721204C6F66
:101F200077205A204A65726B206D6179206C65615B
:101F30006420746F20756E77616E746564207061C3
:101F4000757365732E0A004F6666004F6E20002081
:101F50005A00205900580020204D61783A20002076
:101F60005A00205900580020204D696E3A20005335
:101F70006F667420656E6473746F70733A2000200E
:101F80006472697665722063757272656E743A2048
:101F900000207072657761726E20666C61672063E5
:101FA0006C65617265640A0020686F6D696E6720F8
:101FB00073656E73697469766974793A2000204993
:101FC0006E76616C696420657874727564657220E0
:101FD00000507265686561742041425320456E640B
:101FE0000050726568656174204142532042656407
:101FF0000050726568656174204142530054656DFC
:102000007065726174757265004261636B004E6544
:10201000787420636F726E65720053746F726520FE
:1020200073657474696E6773004C6F6164207365C7
:102030007474696E6773004C6576656C20636F72AB
:102040006E6572730050726F6265205A204F66662B
:10205000736574004661646520486569676874004B
:102060004661646520486569676874004661646517
:1020700020486569676874004F6666004F6E2000EF
:10208000426564204C6576656C696E67004C6576C8
:10209000656C20626564004732380A473239004770
:1020A0003239004175746F20686F6D6500473238B2
:1020B000004D6F74696F6E0044697361626C6520D6
:1020C0007374657070657273004D383400426564D6
:1020D000204C6576656C696E67004175746F206889
:1020E0006F6D6500473238004D6F76652061786905
:1020F00073004D61696E004D6F76652058004D6F1D
:1021000076652059004D6F7665205A0045787472C7
:1021100075646572004D6F766520302E316D6D00EF
:102120004D6F766520316D6D004D6F7665203130D5
:102130006D6D004D6F766520617869730045787428
:102140007275646572004D6F7665205A004D6F762A
:10215000652059004D6F76652058001FFFFFFFFF77
:10216000FFFF600000000001FF400000000000FFD2
:102170008000000000007F83CF00000C303F87FF0D
:1021800080000C301F867980000C000F8C30C783D4
:102190008C30E78C30CFC7CC31F38C30DCECEC33B7
:1021A000B98C30D86C6C33198C30D06C0C33198CE2
:1021B00030D86C0C33198C30DC6C0E3B198C30CF62
:1021C0007C079F198C30C77C038F194000000000EA
:1021D0000002600000000000061FFFFFFFFFFFF885
:1021E0002020506C616E6E65724275666665724243
:1021F000797465733A20002046726565204D656DDF
:102200006F72793A2000436F6D70696C65643A2093
:1022100053657020203120323031380A00207C2074
:10222000417574686F723A20286E6F6E652C206459
:10223000656661756C7420636F6E666967290A0054
:10224000323031382D30312D323000204C617374F2
:1022500020557064617465643A2000627567666930
:10226000782D322E302E780A004D61726C696E0026
:1022700020536F6674776172652052657365740AC6
:1022800000205761746368646F67205265736574DA
:102290000A002042726F776E206F7574205265734A
:1022A00065740A002045787465726E616C20526511
:1022B0007365740A00506F77657255700A00737405
:1022C0006172740A006175746F25692E670065720A
:1022D000726F722077726974696E6720746F2066FE
:1022E000696C650A00446F6E6520736176696E677C
:1022F0002066696C652E0A004D323900456E6473A4
:10230000746F707320256320256320256320256367
:1023100000205A3A0020593A0020583A00656E646D
:1023200073746F7073206869743A200056652D6A63
:1023300065726B0056652D6A65726B0056652D6A75
:1023400065726B00567A2D6A65726B00567A2D6A3B
:1023500065726B0056792D6A65726B0056792D6A2D
:1023600065726B0056792D6A65726B0056782D6A1E
:1023700065726B0056782D6A65726B0056782D6A0F
:1023800065726B00416476616E63656420536574A9
:1023900074696E6773004573746570732F6D6D009B
:1023A0004573746570732F6D6D005A737465707327
:1023B0002F6D6D005A73746570732F6D6D005973B6
:1023C000746570732F6D6D005973746570732F6D24
:1023D0006D005873746570732F6D6D00587374655C
:1023E00070732F6D6D00416476616E636564205378
:1023F000657474696E6773004D34323800496E69D4
:102400007469616C697A6520454550524F4D0046AC
:10241000696C616D656E740054656D706572617490
:102420007572650053746570732F6D6D004A657227
:102430006B00416363656C65726174696F6E005611
:10244000656C6F636974790053657420686F6D659E
:10245000206F6666736574730050726F6265205AF0
:10246000204F666673657400436F6E6669677572A8
:102470006174696F6E0046696C2E204469612E009C
:1024800046696C2E204469612E004F6666004F6ECF
:1024900020004520696E206D6D3300416476616EC9
:1024A0006365204B00416476616E6365204B00419B
:1024B0006476616E6365642053657474696E6773D6
:1024C0000043616E6E6F7420656E74657220737563
:1024D000626469723A2000022E2E004D61696E001E
:1024E0007C3C3E5E2B3D3F2F5B5D3B2C2A225C00FB
:1024F00020746F6F206C6F6E6720657874727573CF
:10250000696F6E2070726576656E7465640A00206E
:10251000636F6C6420657874727573696F6E207078
:10252000726576656E7465640A00486F6D696E67E2
:10253000206661696C65640000007A4300005243C4
:10254000000034430000000000005CC200000000F6
:102550000000000000005CC2000000000000A0427B
:102560000000A0420000A040000000005761726E11
:10257000696E673A20486F6D696E672042756D70AD
:102580002044697669736F72203C20310A00020290
:102590000400000000000000000000004000007A7D
:1025A000430080844300003443FFFFFF000000012C
:1025B000000000010000800055555500000040005B
:1025C00033333300AAAA2A004992240000002000D5
:1025D000C7711C0099991900D14517005555150070
:1025E0003BB113002449120011111100000010002A
:1025F0000F0F0F00E3380E0043790D00CCCC0C0018
:10260000C3300C00E8A20B0064210B00AAAA0A0048
:10261000703D0A009DD80900427B09009224090000
:10262000DCD3080088880800104208000000080079
:10263000F0C107008787070075500700711C07006D
:102640003EEB0600A1BC0600699006006666060027
:10265000703E06006118060017F4050074D10500ED
:102660005BB00500B290050062720500555505008B
:1026700078390500B81E0500050505004EEC04007C
:1026800087D40400A1BD040090A70400499204006F
:10269000C17D0400EE690400C756040044440400F0
:1026A0005C32040008210400411004000000040012
:1026B0003FF00300F8E0030026D20300C3C3030089
:1026C000CCB503003AA803000A9B0300388E030030
:1026D000C08103009F750300D0690300505E0300B2
:1026E0001D53030034480300913D030033330300BE
:1026F00016290300381F030097150300300C030050
:10270000030303000BFA020049F10200BAE80200D9
:102710005CE002002DD802002DD0020059C8020052
:10272000B0C0020031B90200DAB10200AAAA020068
:10273000A0A30200BC9C0200FA9502005C8F02007C
:10274000DF88020082820200457C020027760200B8
:1027500027700200436A02007C640200D05E02001F
:102760003F590200C85302004572726F722077729F
:102770006974696E6720746F20454550524F4D2132
:102780000A0036372603FFFFFF283C3D380EFFFFC7
:10279000FF2A2E303E12FFFFFFFF41FF0C0809FF0A
:1027A000FFFF1A1C18FFFF3F08440AFF43000162A5
:1027B0007573793A2070617573656420666F722055
:1027C000696E7075740A00627573793A207061756C
:1027D00073656420666F7220757365720A00627596
:1027E00073793A2070726F63657373696E670A005C
:1027F0004B494C4C45442E20004B494C4C206361C6
:1028000075736564206279204B494C4C2062757465
:10281000746F6E2F70696E0A004B494C4C45442E04
:1028200020004B494C4C20636175736564206279CC
:1028300020746F6F206D75636820696E61637469C1
:1028400076652074696D65202D2063757272656EE2
:102850007420636F6D6D616E643A2000506C656129
:102860007365207265736574005052494E54455229
:102870002048414C544544005072696E7465722082
:1028800068616C7465642E206B696C6C2829206308
:10289000616C6C6564210A001000C90210012C01F2
:1028A0004001220170011801B0010E01F001040184
:1028B0005002FA00B002F0003003E600D003DC0062
:1028C0009004D2007005C800A006BE000008B40045
:1028D000B009AA00D00BA000600E960060118C0019
:1028E0000015820020197800C01D6E00A02264002F
:1028F000B0275A00902C500000314600E0343C00D4
:1029000010383200903A2800603C1E00A03D1400B0
:10291000803E0A00203F00006265640A002C20739C
:10292000797374656D2073746F70706564212048CD
:1029300065617465725F49443A20004265642068AD
:10294000656174696E67206661696C6564004865DD
:102950006174696E67206661696C65640045312049
:1029600048656174696E67206661696C65640048DA
:10297000656174696E67206661696C6564004B49C6
:102980004C4C45442E2000202D20496E76616C6908
:1029900064206578747275646572206E756D626509
:1029A0007220210A0040012C0173012201AB0118A1
:1029B00001F3010E0148020401AC02FA002A03F0FF
:1029C00000C303E6008004DC006D05D2006C06C87D
:1029D00000C707BE007009B4006D0BAA00CB0DA0A4
:1029E00000CF138C00F21B7800E9246400142E50F1
:1029F000009C353C00B83A2800A03D14000B3F0075
:102A000000453120544845524D414C2052554E41CD
:102A10005741590042454420544845524D414C20AD
:102A200052554E4157415900546865726D616C2092
:102A300052756E61776179004531204572723A2096
:102A40004D415854454D50004572723A204D415801
:102A500054454D5020424544004D415854454D5039
:102A6000207472696767657265640045312045723C
:102A7000723A204D494E54454D50004572723A20ED
:102A80004D494E54454D5020424544004D494E5409
:102A9000454D5020747269676765726564004D38F2
:102AA0003420582059205A204500202F0020424031
:102AB0003A0020403A00656E7175657565696E670C
:102AC0002022004D3234004D3233202573005072E5
:102AD0006F62696E67206661696C65640A00507296
:102AE0006F62696E67206661696C656400205A3A9E
:102AF000200020593A200042656420583A200048BE
:102B00006F6D652025732573257320666972737454
:102B1000002066697273740A005A00590058004810
:102B20006F6D652000556E6B6E6F776E20636F6DF5
:102B30006D616E643A202200000020002300260010
:102B400029002C002F0032000001000003010601C3
:102B5000090100002200250028002B002E00310072
:102B6000340002010000050108010B0105050505FF
:102B7000070508080808020202020A0A08080404F5
:102B80000404010101010101010103030303030323
:102B90000303040707070C0C0C0C0C0C0C0C0202B2
:102BA000020206060606060606060B0B0B0B0B0BAF
:102BB0000B0B01021020200808102040102040803C
:102BC00002010201080402010102040810204080F1
:102BD000804020100804020180040201804020107F
:102BE00008040201080402010102040810204080C8
:102BF000010204081020408048617264636F6465BC
:102C0000642044656661756C742053657474696EE4
:102C10006773204C6F616465640A00B80B0000B8EC
:102C20000B00006400000010270000000096430025
:102C30000096430000A0400000C8410000C84200C8
:102C400000C8420000C843008017433A0A00202011
:102C50004D3930360020204D3931340020204D3997
:102C60003030204B004C696E6561722041647661A2
:102C70006E63653A0A0020590020580053656E7350
:102C80006F726C65737320686F6D696E672074680E
:102C9000726573686F6C643A0A00205A002059000C
:102CA000205800537465707065722064726976658F
:102CB000722063757272656E743A0A0020204D3876
:102CC0003531205A005A2D50726F6265204F66666A
:102CD00073657420286D6D293A0020440020490056
:102CE00020204D3330342050002044002049002063
:102CF000204D3330312050005049442073657474A6
:102D0000696E67733A0A002046002042002048009E
:102D100020204D3134352053004D61746572696156
:102D20006C2068656174757020706172616D657486
:102D30006572733A0A00205A00204A002020473268
:102D4000392057204900205A0020204D34323020AD
:102D500053004175746F20426564204C6576656C44
:102D6000696E673A0A00205A0020590020204D322F
:102D70003036205800486F6D65206F666673657445
:102D80003A0A00204500205A00205900205800200F
:102D9000540020530020204D323035204200204581
:102DA0003C6D61785F655F6A65726B3E0020583CE0
:102DB0006D61785F785F6A65726B3E20593C6D612A
:102DC000785F795F6A65726B3E205A3C6D61785F0F
:102DD0007A5F6A65726B3E00416476616E6365641A
:102DE0003A20423C6D696E5F7365676D656E745F16
:102DF00074696D655F75733E20533C6D696E5F66E7
:102E0000656564726174653E20543C6D696E5F74E3
:102E1000726176656C5F66656564726174653E00BB
:102E200020540020520020204D32303420500041E8
:102E30006363656C65726174696F6E2028756E6975
:102E400074732F7332293A20503C7072696E745F2C
:102E5000616363656C3E20523C7265747261637499
:102E60005F616363656C3E20543C74726176656C8F
:102E70005F616363656C3E0A00204500205A0020B4
:102E8000590020204D3230312058004D6178696D55
:102E9000756D20416363656C65726174696F6E2046
:102EA00028756E6974732F7332293A0A0020450021
:102EB000205A0020590020204D3230332058004D38
:102EC0006178696D756D206665656472617465739E
:102ED0002028756E6974732F73293A0A0020450003
:102EE000205A0020590020204D39322058005374B8
:102EF0006570732070657220756E69743A0A0020DF
:102F0000204D3230302044300A0020204D32303005
:102F10002044002044697361626C65640A0046695C
:102F20006C616D656E742073657474696E67733A55
:102F30000020204D3134392043203B20556E6974E8
:102F40007320696E2043656C736975730A002028CD
:102F50006D6D29002020473231202020203B205554
:102F60006E69747320696E206D6D00205A3A0020DE
:102F7000593A0020436F756E7420583A0020453A44
:102F800000205A3A0020593A00583A0043617264CE
:102F90002072656D6F766564004361726420696EAE
:102FA0007365727465640000002100240027002A04
:102FB000002D003000330001010000040107010A68
:102FC0000100000A0B02090C0D0E080703040100A2
:102FD00000000000000000000000000000000000F1
:102FE00000000000000000000000000000121110AE
:102FF00000000000000000000000000000000000D1
:1030000000000000000000427572702056322E3021
:103010002052656164792E005072696E74696E6722
:103020002E2E2E005072696E742070617573656467
:10303000005072696E742061626F7274656400542E
:10304000656D7065726174757265004D6F74696F3E
:103050006E0054756E65004E6F205344206361729C
:1030600064005072696E742066726F6D2053440064
:1030700053746F70207072696E7400526573756D51
:1030800065207072696E7400436F6E666967757251
:103090006174696F6E005061757365207072696E3E
:1030A0007400496E666F2073637265656E005072BE
:1030B0006F6265205A204F66667365740050726FA8
:1030C0006265205A204F666673657400466C6F77A0
:1030D00000466C6F7700466C6F770046616E207318
:1030E000706565640046616E2073706565640046B6
:1030F000616E2073706565640042656400426564BA
:1031000000426564004E6F7A7A6C65004E6F7A7A81
:103110006C65004E6F7A7A6C650046616465204884
:103120006569676874004661646520486569676819
:10313000740046616465204865696768740053706F
:10314000656564005370656564005370656564006F
:103150004D61696E005072656865617420504C4124
:1031600020456E64005072656865617420504C4162
:1031700020426564005072656865617420504C415E
:103180000054656D706572617475726500454550D7
:10319000524F4D206461746173697A652065727263
:1031A0006F722E0A00290A002062797465733B2031
:1031B00063726320002073746F726564207365749A
:1031C00074696E67732072657472696576656420D0
:1031D0002800202863616C63756C61746564292123
:1031E0000A0020213D2000454550524F4D204352BA
:1031F00043206D69736D61746368202D202873749A
:103200006F7265642920002053697A653A2000496D
:103210006E6465783A2000204D61726C696E3D568F
:103220003535290A0028454550524F4D3D0045454A
:1032300050524F4D2076657273696F6E206D6973C1
:103240006D6174636820005654726176206D696EFA
:10325000005654726176206D696E00565472617624
:10326000206D696E00566D696E00566D696E005670
:103270006D696E00566D6178204500566D6178204D
:103280004500566D6178204500566D6178205A00E2
:10329000566D6178205A00566D6178205A00566D3F
:1032A0006178205900566D6178205900566D61781B
:1032B000205900566D6178205800566D617820586D
:1032C00000566D6178205800416476616E636564D4
:1032D0002053657474696E677300416D6178204591
:1032E00000416D6178204500416D6178205A0041B0
:1032F0006D6178205A00416D6178205900416D61FF
:1033000078205900416D6178205800416D61782026
:103310005800412D74726176656C00412D747261A4
:1033200076656C00412D7265747261637400412D85
:103330007265747261637400416363656C0041631C
:1033400063656C00416476616E63656420536574E7
:1033500074696E677300FFFDFCFAF8F6F4F2F0EEA4
:10336000ECEAE9E7E5E3E1E0DEDCDAD9D7D5D4D26F
:10337000D0CFCDCBCAC8C7C5C3C2C0BFBDBCBAB908
:10338000B7B6B4B3B2B0AFADACAAA9A8A6A5A4A273
:10339000A1A09E9D9C9A99989795949392908F8EB8
:1033A0008D8B8A8988878684838281807F7E7D7BDE
:1033B0007A797877767574737271706F6E6D6C6BE5
:1033C0006A696867666564636261605F5E5D5C5BD5
:1033D0005A5958585756555453525150504F4E4DB4
:1033E0004C4B4A4A4948474646454443424241407D
:1033F0003F3E3E3D3C3B3B3A393838373635353435
:103400003332323130302F2E2E2D2C2B2B2A2929DE
:1034100028272726252524232322212120201F1E7B
:103420001E1D1C1C1B1B1A1919181817161615150A
:1034300014131312121111100F0F0E0E0D0D0C0C90
:103440000B0A0A090908080707060605050404030C
:1034500003020201000053442063617264206F6B19
:103460000A006F70656E526F6F74206661696C65DB
:10347000640A00766F6C756D652E696E69742066DE
:1034800061696C65640A00534420696E6974206642
:1034900061696C0A0057726974696E6720746F20E5
:1034A00066696C653A20006F70656E206661696CB4
:1034B00065642C2046696C653A20006F70656E204B
:1034C0006661696C65642C2046696C653A2000462B
:1034D000696C652073656C65637465640A002053CC
:1034E000697A653A200046696C65206F70656E6583
:1034F000643A2000667265736800646F696E6700E5
:103500002066696C653A20004E6F772000454E4476
:1035100020535542524F5554494E450A00222070BF
:103520006F73002220706172656E743A22005355E9
:1035300042524F5554494E452043414C4C207461F2
:10354000726765743A22004B494C4C45442E20006A
:10355000747279696E6720746F2063616C6C20737C
:1035600075622D67636F64652066696C657320778B
:1035700069746820746F6F206D616E79206C657658
:10358000656C732E204D4158206C6576656C206902
:10359000733A004572726F723A006F70656E206602
:1035A00061696C65642C2046696C653A200045723F
:1035B000723A207574663820666F6E74206E6F7470
:1035C00020696E697469616C697A65642E00457260
:1035D000723A207574663820666F6E74206E6F7450
:1035E00020696E697469616C697A65642E00457240
:1035F000723A207574663820666F6E74206E6F7430
:1036000020696E697469616C697A65642E00436132
:10361000703A0047322F4733206261642070617234
:10362000616D65746572730A006F6B0008010201B9
:1036300011241FBECFEFD1E2DEBFCDBF00E00CBF33
:1036400013E0A0E0B2E0ECE2FFE302E00BBF02C057
:1036500007900D92A237B107D9F727E1A2E7B3E0AF
:1036600001C01D92A13CB207E1F71BE1C7E1DBE11C
:1036700000E006C021970109802FFE010F94ED1E86
:10368000C631D10780E00807A9F70F94C50A0D9449
:10369000851F0C9400002F923F924F925F926F9281
:1036A0007F928F929F92AF92BF92CF92DF92EF92D2
:1036B000FF920F931F93CF93DF93CDB7DEB7A19700
:1036C0000FB6F894DEBF0FBECDBF0091FF0C20E611
:1036D000029F800111240158144F8091280580FF1A
:1036E00007C082EC95E10E94D8B7C8010E94AABC2D
:1036F0001092A2031092A1038FE38093A303109270
:103700009F0310929E0310928C0310928D031092CF
:103710008E0310928F03C8018C01DC012C9101965D
:103720002032D1F32E34D9F411968C9190ED980F6C
:103730009A3020F08D3211F08B3289F4F8013296F4
:103740009F012F5F3F4F808180538A3010F4F90131
:10375000F7CF8F013196D8018C918032D1F310933D
:10376000620E0093610E7801BFEFEB1AFB0AF801BD
:1037700070806AE270E0C7010F94421F009731F039
:10378000FC01319780818032E1F31182FDE47F16E4
:1037900031F024E5721619F037E47312EEC0F70128
:1037A00080814FEFE41AF40A8032C9F380538A30E3
:1037B00008F0E3C07092A30380E090E06AE03196E5
:1037C000DF0111972C91022E000C330B205331098D
:1037D000689FA001699F500D1124C901840F951F96
:1037E000208120532A3058F390939F0380939E03A7
:1037F000DF0131962C912032D9F3EDE47E121AC00C
:103800008E31910591F03CF48731910571F08C3146
:10381000910581F40AC08537910564F087379105D9
:1038200024F0803AF3E09F0729F4B093A203A09319
:10383000A103A3C0C12CD12C760140E050E0812C23
:10384000912C54018394FD0131966C9161110DC04E
:103850005093A2034093A103C0928C03D0928D0396
:10386000E0928E03F0928F0388C06132E9F42DE478
:1038700072121AC080329105B9F4C0928C03D092B2
:103880008D03E0928E03F0928F03F093A203E093F6
:10389000A10363E270E0CF010F94421F009709F487
:1038A0006CC0DC011C9269C061546A3108F042C0EE
:1038B0009F01F90170812F5F3F4F7032D1F320EDEE
:1038C000270F2A30E8F07E3211F421810CC07D32BE
:1038D00011F07B3259F4218130ED320F3A3080F013
:1038E0002E3221F4228120532A3050F04115510507
:1038F00011F00C94352EAF01415051090C94352E26
:103900009F01A62FB0E01401250104C0220C331C36
:10391000441C551C6A95D2F7C228D328E428F52800
:103920002115310511F0201B01C020E0AE58BC4F1D
:103930002C9304C04115510509F4AD012081215497
:103940002A3110F4DF017FCF9F01F901D9016D9178
:103950006623C1F370ED760F7A3010F49D01F5CF38
:1039600073ED760F7230D0F36B32C1F3F9012F5F34
:103970003F4F60816032D1F3E5CF41E04093A00337
:103980008091A3038D3409F439C3843511F40C9468
:10399000F92D873411F00C942E2E20919E03309136
:1039A0009F032C31310509F47AC06CF424303105C1
:1039B00034F42230310564F537FF23C01BC32430B3
:1039C000310579F117C32A32310509F443C24CF4A9
:1039D0002D31310509F47AC02E31310509F491C039
:1039E00009C32B35310509F45EC12C35310509F4C5
:1039F0005EC12A35310509F0FDC210929D030C9479
:103A0000302E80914D0281110C94392E0C94302E61
:103A100081E02230310509F080E00F94AD030C9471
:103A2000302E80E50E94D664882329F00E940C8BFA
:103A30006B017C0103C0C12CD12C760183E50E946F
:103A4000D664882361F00E94566420E030E04AE7A3
:103A500054E40F941D180F942B1D6B017C010E94E0
:103A600005578091630E811105C060E085E792E003
:103A70000E9448820E94299AC60ED71EE81EF91E8F
:103A80000E94299ADC01CB018C199D09AE09BF095E
:103A9000B7FD02C00C94302E0E949DB8F1CF8091EA
:103AA0003E0E8770873011F00C943E2E8FE40E94FA
:103AB000D664882319F00E949B8B03C08FE40E9478
:103AC0008D6481110C94302E0C943E2E0E94FEC702
:103AD00081110C94302E8091560D882311F40C9492
:103AE0002F2F8FE40E94D664882319F00E949B8BAD
:103AF00003C08FE40E948D6481110C94302E0C94CD
:103B00002F2F20E030E048EA51E460914F0E709191
:103B1000500E8091510E9091520E0F94E21B6B014A
:103B20007C0188E50E94D664882321F00E945664B7
:103B30006B017C01CC8EDD8EEE8EFF8E20E030E0BE
:103B400040E251E46091530E7091540E8091550EF5
:103B50009091560E0F94E21B6B017C0189E50E9447
:103B6000D664882321F00E9456646B017C01C982CF
:103B7000DA82EB82FC826C8D7D8D8E8D9F8DA7010C
:103B800096010F942A03882311F40C94302E80E0C0
:103B90000E94F8680E94F6AF85E40E94D6648823EC
:103BA00021F00E949B8B182F04C085E40E948D6435
:103BB00011E021E0412FBE016F5F7F4FCE014C9697
:103BC0000E945DC86B017C019B01AC010F948E1EAD
:103BD00081115FC08C8C9D8CAE8CBF8C20E030E05E
:103BE000A901C501B4010F94B81787FF05C027E1EB
:103BF00037EB41E558EB04C027E137EB41E558E3EB
:103C0000C501B4010F94E21BAB01BC0185EA92E04F
:103C10000E9497BC89809A80AB80BC8020E030E015
:103C2000A901C501B4010F94B81787FF05C027E1AA
:103C300037EB41E558EB04C027E137EB41E558E3AA
:103C4000C501B4010F94E21BAB01BC0180EA92E014
:103C50000E9497BC20E030E0A901C701B6010F9493
:103C6000B81787FF05C027E137EB41E558EB04C0E3
:103C700027E137EB41E558E3C701B6010F94E21B9A
:103C8000AB01BC018BE992E00E9497BC8AE00E94E4
:103C9000D1B70E943CB5113011F40E9460F30E942C
:103CA00017CD0C94302E40939D030C94302E2AE6B1
:103CB000222E22E0322E35E2E32E3DE0F32E2FE4D9
:103CC0003EE039A328A34FE3C42E4EE0D42E00E0FB
:103CD00010E0D1018D911D010E94D664882309F462
:103CE0004BC00E9456642B013C01133049F0F60191
:103CF00020813181428153810F94E11B2B013C01D2
:103D0000A8A1B9A12D913D914D915C91C301B20142
:103D10000F94E11B4B015C012DEB37E346E855EBBB
:103D20000F94081E87FD0AC02DEB37E346E855E3E4
:103D3000C501B4010F94B8171816F4F4133051F4F8
:103D400040925B0E50925C0E60925D0E70925E0E21
:103D500001E012C0A5019401F701608171818281A7
:103D600093810F94E21BD7016D937D938D939C9368
:103D70001397812F0E941FB01F5FB4E0EB0EF11C60
:103D8000E8A1F9A13496F9A3E8A3F4E0CF0ED11C81
:103D9000143009F09ECF002309F458C0C0905B0E88
:103DA000D0905C0EE0905D0EF0905E0E20E030E072
:103DB000A901C701B6010F94E21B2091B60D309105
:103DC000B70D4091B80D5091B90D0F941D180F9477
:103DD000131E60933D0770933E0780933F079093B7
:103DE0004007C0922D07D0922E07E0922F07F09245
:103DF000300790910B0780910C07981719F00E94DB
:103E0000A75624C00E94055780916F00982F92708A
:103E100081FF05C080916F008D7F80936F0040917E
:103E20003D0750913E0760913F07709140074093D6
:103E3000A60D5093A70D6093A80D7093A90D99231B
:103E400029F080916F00826080936F000E9417CDEF
:103E50000C94302E80914D02882311F40C94302E56
:103E600089E40E94D664082F882321F00E943564DB
:103E7000E62E01C0E12C8AE40E94D664182F882324
:103E800021F00E943564F62E01C0F12C002319F0B8
:103E900022E02E1528F0112349F032E03F1530F4CE
:103EA0008DEA92E00E94D8B70C94302E0E94918B3C
:103EB0000023F1F02091800E3091810E4E2D4203AF
:103EC000B001439F700D11248091EE0E9091EF0E82
:103ED000680F791F072E000C880B990B0F94BE17E3
:103EE0006093310D7093320D8093330D9093340DA8
:103EF0001123F1F02091820E3091830E4F2D420359
:103F0000B001439F700D11248091F00E9091F10E3D
:103F1000680F791F072E000C880B990B0F94BE17A2
:103F20006093350D7093360D8093370D9093380D57
:103F300080E50E94D6648823E9F00E949B8B882349
:103F4000A9F10023D9F020E030E048EA51E4609183
:103F5000310D7091320D8091330D9091340D0F948D
:103F6000E11B6093310D7093320D8093330D90936C
:103F7000340D04C080E50E948D64E1CF1123B1F0BF
:103F800020E030E040E251E46091350D7091360D53
:103F90008091370D9091380D0F94E11B6093350D92
:103FA0007093360D8093370D9093380D86E40E9400
:103FB000D6648823D9F00E9456646B017C0120E00E
:103FC00030E0A9010F94081E181684F420E030E0B8
:103FD00040E752E4C701B6010F94BE1C609355023E
:103FE0007093560280935702909358020E9486B1B4
:103FF0000C94302E0E94ECC70C94302E80919E03BE
:1040000090919F038837910509F4C9C70CF032C11C
:104010008D34910509F470C50CF058C089319105B3
:1040200009F41DC31CF58431910509F4CAC27CF45E
:104030008131910509F4B6C22CF4029708F43BC211
:104040000C94F62D429709F495C60C94F62D863102
:10405000910509F4E0C20CF4DAC28731910509F444
:10406000E0C2489709F4F0C20C94F62D8E31910508
:1040700009F46AC384F48B31910509F404C30CF488
:10408000F4C28C31910509F455C34D9711F40C9489
:10409000302E0C94F62D8A32910509F4C8C44CF4E4
:1040A0008F31910509F416C4809709F4C7C30C94A5
:1040B000F62D8B34910509F41BC58C34910511F054
:1040C0000C94F62D0E94977D0C94302E8C36910521
:1040D00009F49CC50CF047C08535910509F44DC61F
:1040E0004CF58235910509F43EC6D4F4813591052D
:1040F00011F00C94F62D0E9476BE0E94E9AA10924F
:10410000E10E1092E00E68EE73E080E090E00E9415
:104110001CB760E08BED93E00E9448820C94302E37
:104120008335910509F422C68435910509F422C628
:104130000C94F62D8936910509F4B2C554F48C35EA
:10414000910509F433C68836910509F4D9C40C9455
:10415000F62D8A36910509F4DAC58B36910509F4F6
:10416000F2C50C94F62D8137910509F457C59CF4DE
:104170008E36910509F4EFC40CF4E9C48F3691052D
:1041800009F4FCC48037910511F00C94F62D88ECED
:1041900093E00E94F7B78537910509F494C60CF0B7
:1041A0005FC08237910509F489C68337910511F004
:1041B0000C94F62D89EC94E00E94D8B760E089EB6E
:1041C00094E00F94430961E082EB94E00F9443097B
:1041D00061E087EA94E00F94430961E087E994E0A5
:1041E0000F94430960E08EE894E00F94430961E086
:1041F00084E894E00F94430961E08AE794E00F9427
:10420000430961E082E794E00F94430961E084E6AA
:1042100094E00F94430960E086E594E00F9443092D
:1042200060E087E494E00F94430960E089E394E060
:104230000F94430960E083E294E00F94430960E047
:1042400082E194E00F94430960E08DEF93E00F94D6
:10425000430961E08AEE93E00F9443090C94302EF9
:104260008637910509F437C68737910509F469C681
:104270000C94F62D8033A1E09A0711F40C94A92A2E
:104280000CF07FC08D3C910509F4F2C7A4F58E3B7C
:10429000910509F402C5D4F48C38910509F4E2C4FF
:1042A0005CF48937910511F00C94F62D1092700B87
:1042B00010926F0B0C94302E8139910509F474C65D
:1042C0008B39910509F4FDC40C94F62D893C9105B8
:1042D00009F41FC734F4883C910509F4CCC60C944A
:1042E000F62D8B3C910509F433C78C3C910509F4FC
:1042F0004AC70C94F62D823E910509F4C6C3F4F426
:10430000833D910509F4D1C77CF48E3C910511F0F1
:104310000C94F62D4AE6C42E42E0D42E52E7E52E48
:104320005BE0F52E10E0AFC78C3D910509F4C0C7E6
:104330008D3D910509F4C9C70C94F62D8D32E1E04D
:104340009E0711F40C94212A6CF4823221E092072A
:1043500011F40C94F7298C32914011F40C94022A38
:104360000C94F62D8E3241E0940711F40C941E2B20
:104370008F32914011F00C94F62D0E947E3B0C94EC
:10438000302E863FB1E09B0711F40C94892C0CF081
:1043900053C08A39F1E09F0709F43CC454F58039D1
:1043A00031E0930711F40C94622B7CF48336914036
:1043B00011F00C94F62D83E995E30E94D8B78CE5B3
:1043C00097E00E94D8B70C94302E8139B1E09B075A
:1043D00011F40C94652B8239914011F00C94F62D58
:1043E00080E00E94A8F30E9460F30E9417CD0C9415
:1043F000302E8C3AF1E09F0711F40C94DF2B6CF413
:10440000843A31E0930711F40C946B2B853A914078
:1044100011F40C946E2B0C94F62D843FA1E09A07B6
:1044200011F40C94862C853F914011F00C94F62DDC
:104430000E947DCF0C94302E8A38E3E09E0711F461
:104440000C94372DB4F4883F21E0920711F40C94BA
:10445000982C14F40C948C2C833543E0940711F4BD
:104460000C94AB2C8438934011F40C94F02C0C94E5
:10447000F62D8239B3E09B0711F40C94962D7CF451
:104480008F38F3E09F0711F40C94862D8039934008
:1044900011F00C94F62D0E94158A0C94302E803A5F
:1044A00033E0930709F409C2873E934011F40C945A
:1044B000E12D0C94F62DA090A103B090A20380E50D
:1044C0000E94D664882359F00E940C8B6B017C01FA
:1044D00011E0672B682B692B31F410E004C010E069
:1044E000C12CD12C760183E50E94D664882311F477
:1044F0000C94322F0E94566420E030E04AE754E4E6
:104500000F941D180F942B1D6B017C0111110BC012
:10451000672B682B692B39F4A114B10421F0D50164
:104520008C91811102C010E001C011E00E9405577A
:10453000112329F061E0C5010E942FD905C060E078
:104540008CEC92E00E94488283E08093A00381E09B
:104550008093C00EC114D104E104F104B1F00E94B3
:10456000299AC60ED71EE81EF91E0E94299ADC0160
:10457000CB018C199D09AE09BF09B7FF0DC0809111
:10458000C00E81110C94372F07C08091C00E882374
:1045900019F00E949DB8F9CF0E942AE21092C00E35
:1045A0000C94302E60E08FED92E00E9448825F987C
:1045B0008A988091080181708093060112980C946A
:1045C000302E87EF92E00E94D8B71092E8098BEC6A
:1045D00097E00E9499A48BE1EBECF7E0DE011196E5
:1045E00001900D928A95E1F740E050E0BE016F5FC7
:1045F0007F4F80E090E00E94CB62CE0101960E9446
:104600008EB788EE92E00E94D8B70C94302E0E94AC
:1046100000FB0C94302E10929F071092A0070C9470
:10462000302E8091A1039091A203FC0120812223CE
:1046300029F0203209F410823196F8CF40E061E091
:104640000E94A1F90C94302E8091A007882319F0C4
:1046500081E080939F070E94757D0C94302E10920C
:104660009F070E94977D0C94302E8091A00788238D
:1046700011F40C94302E83E50E94D66481110C94C1
:104680003B2F0C94302E83E40E948D64882319F113
:1046900082E193E00E94D8B780913609882391F097
:1046A000BE016F5F7F4F83E399E00E9461A38E019B
:1046B0000F5F1F4FF80181918F01882339F00E940D
:1046C000D1B7F8CF88E093E00E94D8B78AE00E9483
:1046D000D1B70C94302E8091A007882329F18091C6
:1046E0009F07882309F181E293E00E94D8B7609187
:1046F000E4097091E5098091E6099091E7094AE0A3
:104700000E947CBB8FE20E94D1B76091E00970915A
:10471000E1098091E2099091E3094AE00E947CBBA3
:104720000E94A6BC0C94302E83E393E00E94D8B77D
:104730000C94302E40E060E08091A1039091A203A0
:104740000E94A1F90C94302E8091A007882311F4C7
:104750000C94302E83E399E00E9427A383E399E031
:104760000E9459A310929E0710929D070091A103E9
:104770001091A2038091A007882311F40C94302E8D
:1047800010929F0780913609882321F083E399E0F6
:104790000E9459A3B801CE014C960E94F1F88C01F9
:1047A000009711F40C94302E6C8D7D8D19821C8233
:1047B00022E0AC01CE0101960E9411A9811102C034
:1047C000F12C14C0CE0101960E9439628823C1F3F6
:1047D00061E0CE0101960E940BA3009789F325EEBC
:1047E000DC012C931C820E945687F82ECE01019684
:1047F0000E948EB7FF2089F08CE593E00E94D8B725
:10480000C8010E94AABC1092E4091092E509109216
:10481000E6091092E7090C94302E84E493E00E949C
:10482000D8B7F80181918F01882319F00E94D1B780
:10483000F8CF8EE20E94D1B70C94302E80919F0762
:1048400081110E9405578091A007882311F40C94D0
:10485000302E80E50E94D664882319F00E949B8B3D
:1048600003C080E50E948D64182F482F61E080917D
:10487000A1039091A2030E94A1F983E50E94D6644E
:10488000882381F00E943564AB01BC014093E409A8
:104890005093E5096093E6097093E70983E399E093
:1048A0000E9421A28091A007882319F081E08093C3
:1048B0009F0711110C94302ECECE8091A1039091C0
:1048C000A20321E020939E0740E060E00E94A1F94E
:1048D0000C94302E0E94267D7B018C0120E831E56E
:1048E00041E050E00F94A61BC9016DE671E00F9402
:1048F000AA1E4B015C01C801B70120E13EE040E087
:1049000050E00F94A61BCA01B90128E130E040E055
:1049100050E00F94A61B762E672EC62ED72E9CE352
:10492000292E312C412C512CC801B701A201910133
:104930000F94A61BF62EE72ECA01B901A201910120
:104940000F94A61BCB018E010F5F1F4F81149104A2
:1049500099F0EF92FF927F936F936F927F92BF9245
:10496000AF929F928F9282E993E09F938F931F93D0
:104970000F930F94521713C0A114B104B1F0EF922A
:10498000FF927F936F936F927F92BF92AF9282E874
:1049900093E09F938F931F930F930F9452170FB62B
:1049A000F894DEBF0FBECDBF30C0CD2879F0EF92B6
:1049B000FF927F936F936F927F9286E793E09F932E
:1049C0008F931F930F930F945217E9CF892B69F0A0
:1049D000EF92FF927F936F938EE693E09F938F9376
:1049E0001F930F930F945217DACFEF92FF928AE63C
:1049F00093E09F938F931F930F930F9452170F90F1
:104A00000F900F900F900F900F9060E0C8010E94E0
:104A10002FD982EC95E10E94D8B7B80186EA93E0DD
:104A20000E94E6B78AE00E94D1B70C94302E83E54D
:104A30000E94D664882311F40C94302E0E944564A1
:104A4000E82E80E50E94D664882339F00E94356400
:104A50008B0177FF04C00C94302E0DE010E0D02EB7
:104A600089E40E94D664882361F00E949B8B8111A7
:104A70000C944C2F8D2D0F94BF1081112FC00C94CE
:104A80004C2F89E40E948D64F2CF80E50E948D64F2
:104A9000882311F40C94302E80E50E94D66488237C
:104AA00009F477C40E943564162F83E50E94D6640A
:104AB000882309F470C40E9435647B01C701019604
:104AC000039710F00C94302E17FF02C00C94302E78
:104AD000812F0F94BF10882309F461C483E995E303
:104AE0000E94D8B78BE096E00E94D8B70C94302E85
:104AF0000E94757D0C94302E0E94AC7D0C94302E5B
:104B00000E94C98981110C94302E8091280583FF61
:104B100002C00C94302E83E50E94D664882399F05D
:104B20000E9456640F94261D8B017093DF0E6093D4
:104B3000DE0E80E00E942ABE0635110524F40E9494
:104B4000AC7D0E942AE20E944CF50C94302E0E940B
:104B50004B420C94302E8EE40E94D664882311F4CC
:104B60000C94302E0E94356460937A0470937B0419
:104B700080937C0490937D040C94302E83E50E94F6
:104B80008D64882359F083E50E94D664882319F048
:104B90000E94456401C080E08093280582EC95E185
:104BA0000E94D8B781EC93E00E94D8B78091280585
:104BB000882349F187EBE82E83E0F82E00E010E02F
:104BC00020E08091280590E0002E02C09595879501
:104BD0000A94E2F780FF0EC0DD24D394D20E222384
:104BE00019F08CE20E94D1B7F701859194910E944F
:104BF000D8B72D2D0F5F1F4FF2E0EF0EF11C0530DF
:104C00001105F9F663CD83EB93E05ECD1092370288
:104C10000C94302E0E9459B70C94302E83E50E94DC
:104C2000D664882371F00E9445648093000290E06E
:104C3000CD9714F40C94302E8CE3809300020C94E6
:104C4000302E82EC95E10E94D8B74091000250E0EE
:104C500060E070E081ED93E00E94E7BB8AE00E9493
:104C6000D1B7FEC78091280583FF01C0F9C783E54E
:104C70000E94D664882309F4F3C70E9456640F94F7
:104C8000261D6639710514F066E970E07093DD0E3B
:104C90006093DC0E0E94DEBDE3C70E947D40E0C74A
:104CA0000E94C989811109C088ED93E00E94D8B79C
:104CB0000E943CBD8AE00E94D1B71092A0030C94E0
:104CC000DE2F83E50E94D664882309F4C9C70E94B9
:104CD0004564182F90E0CD970CF01CE310939403DB
:104CE0000E94299A6B017C01212F30E0A8EEB3E0ED
:104CF0000F94D21BC60ED71EE81EF91EC092900359
:104D0000D0929103E0929203F0929303A9C780E5B9
:104D10000E94D664811106C083E50E94D664882370
:104D200059F005C00E94456481119AC7F5CF0E94D1
:104D300035646F3F710510F06FEF70E07093E10E16
:104D40006093E00E8DC780E50E94D664811105C096
:104D50001092E10E1092E00E83C70E943564672B1B
:104D600009F07EC7F5CF109298037AC781E080934F
:104D7000980376C70E94AE8A73C783E50E948D644C
:104D8000882309F46DC70E94566420E030E04AE7AA
:104D900054E40F941D180F942B1D60939903709386
:104DA0009A0380939B0390939C035AC71AE6C12EE3
:104DB00012E0D12E0AEAE02E0DE0F02E10E0D6012E
:104DC0008D916D010E948D64882309F46DC01330AC
:104DD00009F063C00E9456644B015C0120E030E0A2
:104DE00040EA51E40F94B81787FF4EC0A501940123
:104DF0006091B60D7091B70D8091B80D9091B90D7D
:104E00000F94BE1C2B013C019B01AC016091F70487
:104E10007091F8048091F9049091FA040F941D1890
:104E20006093F7047093F8048093F9049093FA0464
:104E3000A3019201609117057091180580911905E1
:104E400090911A050F941D1860931705709318051B
:104E50008093190590931A056091030F7091040FC8
:104E60008091050F9091060F0F94BC17A30192013A
:104E70000F941D180F942B1D6093030F7093040F54
:104E80008093050F9093060F8092B60D9092B70D08
:104E9000A092B80DB092B90D07C00E945664F701F8
:104EA00060837183828393831F5FF4E0EF0EF11CB4
:104EB000143009F084CF0E94EDF6D2C60E94055747
:104EC0000E9417CDCDC660E08091A1039091A2030E
:104ED0000E942FD9C5C60091A1031091A20383E0BF
:104EE000F12C40E08150E9F0D8019C91292F2B7FD3
:104EF0002134C1F711962C912133A1F7913421F07F
:104F0000953421F441E002C0FF24F39498012E5F10
:104F10003F4F89012F5F3F4FF80190819032C9F3D5
:104F2000E1CF442321F082EC95E10E94D8B7FF2025
:104F300021F085E995E00E94D8B7C8010E94AABC7B
:104F40008FC681EB95E00E94D8B789EA95E00E9470
:104F5000D8B7659903C087E193E002C081E293E08E
:104F60000E94AABC81EA95E00E94D8B78091030113
:104F700081FD03C087E193E002C081E293E00E94DB
:104F8000AABC89E995E00E94D8B74B9903C087E194
:104F900093E002C081E293E00E94AABC61C6409304
:104FA000700B40936F0B5CC683E50E94D664882328
:104FB00019F00E94356402C060E070E08B01112797
:104FC000023011054CF083E995E30E94D8B78BECD1
:104FD00095E00E94D8B744C688E40E94D66488232E
:104FE000A9F00E9435646A3A71053CF06931F1E03C
:104FF0007F072CF068E171E002C06AEA70E0F80116
:10500000EE0FFF1FE457F14F7183608386E40E9427
:10501000D6648823A9F00E943564F801EE0FFF1FC3
:10502000EC57F14F718360836F3F710519F014F0F5
:105030006FEF70E077FF02C060E070E07183608323
:1050400082E40E94D664882309F40AC60E9435646B
:105050006530710534F0683871052CF067E870E050
:1050600002C065E070E0000F111FF801E857F14F32
:1050700071836083F5C50E94C9898111F1C584E4FB
:105080000E948D64882309F441C00E9456646B011C
:105090007C0111E020E030E0A9010F94B8178111E4
:1050A00001C010E010934D0D20E030E0A901C701D0
:1050B000B6010F94B817882349F10E945664E09115
:1050C000DE0D24E0E29FF0011124EE5AF24F6083DE
:1050D00071838283938320E030E0A9016091520DB7
:1050E0007091530D8091540D9091550D0F94B817F8
:1050F00081110CC080E090E0A0EEBFE38093520DE0
:105100009093530DA093540DB093550D0E94FEA99A
:10511000A7C57AE6E72E72E0F72E07E01FE0D70179
:105120008D917D010E948D64882349F00E94566410
:105130000F942B1DF80160837183828393830C5F2E
:105140001F4FFFE007311F0751F70E947CF588C50C
:105150006AE6E62E62E0F62E0BE015E0D7018D91AF
:105160007D010E948D64882339F00E945664F80105
:1051700060837183828393830C5F1F4FF5E00B3153
:105180001F0761F76DC583E50E94D6648823A1F0EF
:105190000E9456646093030570930405809305058F
:1051A000909306056093FF047093000580930105BA
:1051B0009093020510E001C011E080E50E94D664E2
:1051C000882359F00E945664609303057093040588
:1051D000809305059093060510E082E50E94D66451
:1051E000882359F00E945664609307057093080560
:1051F0008093090590930A0510E084E50E94D66427
:10520000882359F00E9456646093FF047093000550
:10521000809301059093020523C5112309F420C54D
:1052200040910305509104056091050570910605B4
:1052300083EF95E00E9497BC4091070550910805C7
:105240006091090570910A0580EF95E00E9497BC76
:105250004091FF0450910005609101057091020595
:105260008DEE95E00E9497BC8AE00E94D1B7F8C409
:105270000E941C8BF5C41F5FF4E0EF0EF11C13308D
:1052800011F40C94261FD6018D916D010E948D643E
:10529000882389F30E945664F701608371838283B7
:1052A0009383812F0E941FB0E6CF0E94AB8BD8C49E
:1052B00083E50E94D664882309F4D2C40E94356431
:1052C00070933A0260933902CBC40E94C98981115C
:1052D000C7C483E50E94D6648823D9F10091DE0D0E
:1052E00010E00E943564000F111FF801E55BFD4FCF
:1052F000718360838091DE0D90E08C01000F111F9F
:10530000000F111F9801225F3D4F7901880F991FEF
:10531000FC01E55BFD4F60817181072E000C880B5D
:10532000990B0F94BE172AE037ED43E25CE30F942C
:105330001D18F801E25BF24F2081318142815381D7
:105340000F941D18D7016D937D938D939C931397A4
:1053500087C482EC95E10E94D8B785E40E94D1B75A
:105360008091DE0D805D0E94D1B7E091DE0DF0E00E
:10537000EE0FFF1FE55BFD4F6081718183E096E0DA
:105380000E941BBC85E20E94D1B78AE00E94D1B77F
:1053900067C410E08ACBEE24EA94FE2C8FCB0E94E7
:1053A000055760E0812F0E940BDFBFEFEB16FB0675
:1053B00031F0EA94EF2871F0E12CF12C0EC0812F2E
:1053C0000E94B5DE31E020E0892B09F030E0E32EC9
:1053D000F22E03C0EE24E394F12C812F0E94B5DE5F
:1053E0008E159F0509F43CC40E949DB8F6CF8AE54E
:1053F0000E94D664811165C583E50E94D66481113F
:1054000060C52EC483E50E94D664882321F00E94E3
:1054100035648B0102C004E011E080E50E94D6648F
:10542000882349F00E943564CB016938734128F024
:1054300088E893E102C088EE93E0B8010E947D8184
:105440000FC485E40E94D664811110C080E50E94DB
:105450008D648823C1F00E9456646093CA0D7093D6
:10546000CB0D8093CC0D9093CD0D0DC00E94456463
:10547000882361F383E995E30E94D8B787E396E038
:105480000E94D8B7EDC389E40E948D64882381F01F
:105490000E9456642CEA35EC47E25EE30F941D1837
:1054A0006093C60D7093C70D8093C80D9093C90D7E
:1054B00084E40E948D64882381F00E9456642CEA63
:1054C00035EC47E25EE30F94BE1C6093CE0D709303
:1054D000CF0D8093D00D9093D10D82EC95E10E9479
:1054E000D8B74091CA0D5091CB0D6091CC0D709101
:1054F000CD0D83E396E00E9497BC2CEA35EC47E2A1
:105500005EE36091C60D7091C70D8091C80D9091BA
:10551000C90D0F94BE1CAB01BC018FE296E00E9446
:1055200097BC2CEA35EC47E25EE36091CE0D7091BA
:10553000CF0D8091D00D9091D10D0F941D18AB011E
:10554000BC018BE296E00E9497BC8AE00E94D1B732
:1055500087C380E50E948D64882351F00E945664C1
:105560006093C20D7093C30D8093C40D9093C50DCD
:1055700089E40E948D64882381F00E9456642CEA9D
:1055800035EC47E25EE30F941D186093BE0D7093F7
:10559000BF0D8093C00D9093C10D84E40E948D6473
:1055A000882381F00E9456642CEA35EC47E25EE3E2
:1055B0000F94BE1C6093BA0D7093BB0D8093BC0D0D
:1055C0009093BD0D82EC95E10E94D8B74091C20D39
:1055D0005091C30D6091C40D7091C50D81E596E0A9
:1055E0000E9497BC2CEA35EC47E25EE36091BE0D69
:1055F0007091BF0D8091C00D9091C10D0F94BE1C94
:10560000AB01BC018DE496E00E9497BC2CEA35EC1E
:1056100047E25EE36091BA0D7091BB0D8091BC0DC5
:105620009091BD0D0F941D18AB01BC0189E496E06B
:105630000E9497BC8AE00E94D1B712C383E50E9402
:105640008D64182F882371F00E9456640F94261DD4
:10565000709313026093120221E0672B09F020E09F
:105660002093270580E50E948D64882359F02091BE
:10567000120230911302232B11F00E949B8B809316
:105680002705EEC21111ECC282EC95E10E94D8B759
:1056900080912705882319F063E273E002C066E277
:1056A00073E08AE696E00E94E6B76091120270917C
:1056B000130289E596E00E941BBC85E596E00E94F6
:1056C000D8B7CEC20E940557CBC281E00E94A8F392
:1056D0000E9417CDC5C20E947A90C2C289E40E947E
:1056E000D664882321F00E943564162F01C01FEF75
:1056F0008AE40E94D664882321F00E943564062F34
:1057000001C00FEF8AE50E948D64F82E811105C05B
:1057100081E50E948D64D82E01C0D12C17FD06C0F2
:1057200007FD04C0F1100BC0D11009C083E995E357
:105730000E94D8B78CE996E00E94D8B791C2133086
:1057400010F4033048F083E995E30E94D8B78DE761
:1057500096E00E94D8B784C2E12E110FFF08002EF8
:10576000000C110B0E945664D701AA0FBB1FDD204D
:1057700081F0FD01EE0DFF1DE00FF11FEE0FFF1F89
:10578000EE0FFF1FE057F14F20813181428153819D
:1057900003C020E030E0A901EA0EFB1E0E0D1F1D24
:1057A000000F111F000F111F0057114F0F94E21B24
:1057B000D8016D937D938D939C93139751C20E9452
:1057C000FEC781114DC200E515E2EFE4FEE0F9A34A
:1057D000E8A39E012F5F3F4F590139EA832E35E23E
:1057E000932E1501F8016591759185919491A8A169
:1057F000B9A1CD90DD90ED90FD90B9A3A8A3A7012C
:1058000096010F94E11B2B013C01F1016083718330
:105810008283938320E030E040EA51EC0F94081E2D
:1058200087FD0AC020E030E040EA51E4C301B20144
:105830000F94B81718162CF4F401849118160CF470
:10584000B2C3D101CD90DD90ED90FD901D0120E01F
:1058500030E040EA51ECC701B6010F94081E87FD05
:105860000AC020E030E040EA51E4C701B6010F94DD
:10587000B8171816B4F483E995E30E94D8B78AEDF7
:1058800096E00E94D8B761E08CEC96E00E944882D6
:105890000E94755D68E270E088EC90E00E947D8176
:1058A000DFC10C5F1F4FBFEF8B1A9B0AE5E20C357F
:1058B0001E0709F097CF22E7E22E2BE0F22E10E030
:1058C000F50181919191A191B1915F01F7018193CE
:1058D0009193A193B1937F01812F0E941FB01F5F0D
:1058E000133071F70E9417CD60E08CEB96E00E94B8
:1058F000488263E972E084E690E00E947D816AEB71
:1059000072E084E690E00E947D81AAC10E94447802
:10591000A7C10E9435CEA4C183E50E948D6488236F
:1059200021F00E949B8B91E089270E948ACF98C129
:1059300081E080937B0E0E9475E610927B0E882397
:1059400009F48EC182EC95E10E94D8B788EF96E009
:105950000E94D8B785C18AE50E94D664882341F1A8
:105960000E9456646B017C0120E030E040EA51EC7B
:105970000F94081E87FD13C020E030E040EA51E498
:10598000C701B6010F94B81718164CF0C0924B0E11
:10599000D0924C0EE0924D0EF0924E0E61C183E912
:1059A00095E30E94D8B783E097E00E94D8B758C12A
:1059B00082EC95E10E94D8B783E297E00E94D8B7C5
:1059C00040914B0E50914C0E60914D0E70914E0EC9
:1059D00080E297E00E9497BC8AE00E94D1B740C164
:1059E0008BE40E94D664882371F18BE40E94D66414
:1059F0008823B1F00E9456646B017C0120E030E006
:105A0000A9010F94081E87FD19C020E030E040E294
:105A100051E4C701B6010F94B81718167CF003C003
:105A2000C12CD12C76010E940557C092FB04D09264
:105A3000FC04E092FD04F092FE0412C182E397E0C0
:105A40000E94D8B70DC182EC95E10E94D8B7409171
:105A5000FB045091FC046091FD047091FE0481E50B
:105A600097E00E9497BC8AE00E94D1B7F9C089E410
:105A70000E94D664882321F00E944564F82E01C05C
:105A8000F12C9AE6C92E92E0D92E01E010E0D60161
:105A90008D916D010E94D664882311F10E943564B6
:105AA00061157105E9F0123089F01330A1F0113061
:105AB00029F0F11009C086E896E004C0F11004C096
:105AC00084E096E00F94C30A00E00AC0F110FCCF16
:105AD00082E895E0F7CF0E94C9898823A9F3C0C066
