:100000000C94AE1B0C94DF1B0C94DF1B0C94DF1BB9
:100010000C94DF1B0C94DF1B0C94DF1B0C94DF1B78
:100020000C94DF1B0C94DF1B0C94DF1B0C94DF1B68
:100030000C94DF1B0C9471930C94DF1B0C94DF1B4E
:100040000C94DF1B0C94CB880C94DF1B0C94DF1BEF
:100050000C94DF1B0C94DF1B0C947AC90C94D4967F
:100060000C94DF1B0C94F3630C94DF1B0C94DF1BCC
:100070000C94DF1B0C94DF1B0C94DF1B0C94DF1B18
:100080000C94DF1B0C94DF1B0C94DF1B0C94DF1B08
:100090000C94DF1B0C94DF1B0C94DF1B0C94DF1BF8
:1000A0000C94DF1B0C94DF1B0C94DF1B0C94DF1BE8
:1000B0000C94DF1B0C94DF1B0C94DF1B0C94DF1BD8
:1000C0000C94DF1B0C94DF1B0C94DF1B0C94DF1BC8
:1000D0000C94DF1B0C94DF1B0C94DF1B0C94DF1BB8
:1000E0000C94DF1BCC00CC00C800C800C800EA009C
:1000F000EA00EA00CE00EC00EC00EC002395269527
:10010000159519951F955D952A952E9534953895D9
:100110003C95429546954A955D95509554955895D0
:10012000F095F595FA9504960E9687961896209672
:10013000289632963C96469655965F96879669968F
:1001400073967D96084AD73B3BCE016E84BCBFFDBB
:10015000C12F3D6C74319ABD56833DDA3D00C77F97
:1001600011BED9E4BB4C3E916BAAAABE0000008030
:100170003F05A84CCDB2D44EB93836A9020C50B9BF
:10018000918688083CA6AAAA2ABE000000803F00EB
:100190000D94481E0D9449230D94411E0D945C1E30
:1001A0000D94F5080D947B030D94D7160D94F80F5C
:1001B0000D9488060D94DA160D94F8080D94CE1857
:1001C0000D94F3080D947D030D94D6160D94F50F40
:1001D0000D9468230D944F1E0D94561E4E414E49AA
:1001E0004E495459494E46CDCCCC3D0AD7233C17F5
:1001F000B7D13877CC2B329595E6241FB14F0A0042
:100200000020410000C84200401C4620BCBE4CCA31
:100210001B0E5AAEC59D7447322F4733206261646E
:1002200020706172616D65746572730A00486F6D4C
:10023000652058592066697273740A00486F6D65AD
:1002400020585920666972737400205A3A200020A1
:10025000593A200042656420583A2000436C696393
:100260006B20746F20726573756D652E2E2E0045A0
:100270006E642066696C65206C6973740A0042655F
:1002800067696E2066696C65206C6973740A004446
:10029000656C6574696F6E206661696C65642C209D
:1002A00046696C653A200046696C652064656C653A
:1002B0007465643A002569730025696D20256973AA
:1002C000002569682025696D20256973002569640A
:1002D000202569682025696D2025697300256979C5
:1002E00020256964202569682025696D20256973AA
:1002F000005072696E742074696D653A2000537401
:10030000616E6461726420446576696174696F6EC0
:100310003A20002052616E67653A2000204D6178D6
:100320003A2000204D696E3A20004D65616E3A20FA
:100330000046696E6973686564210A002072616E07
:1003400067653A2000206D61783A2000206D696E63
:100350003A2000207369676D613A2000206D656165
:100360006E3A20003A207A3A2000206F6620002062
:100370005A00205900205800476F696E6720746F3B
:100380003A00436C6F636B776973650A00436F755E
:100390006E7465722D0020446972656374696F6EB6
:1003A0003A2000202020616E676C653A200053746B
:1003B000617274696E67207261646975733A2000B6
:1003C000506F736974696F6E696E67207468652019
:1003D00070726F62652E2E2E0A003F4E756D62653B
:1003E00072206F66206C65677320696E206D6F7672
:1003F000656D656E74206E6F7420706C61757369C5
:10040000626C652028302D3135292E0A003F2028C6
:10041000582C5929206F7574206F6620626F756E95
:1004200064732E0A003F53616D706C652073697AA6
:1004300065206E6F7420706C61757369626C6520E5
:1004400028342D3530292E0A004D3438205A2D50AD
:10045000726F6265205265706561746162696C6972
:10046000747920546573740A003F285629657262B6
:100470006F7365206C6576656C20697320696D709B
:100480006C61757369626C652028302D34292E0AE1
:10049000004B494C4C45442E200020573A00426501
:1004A0006420636F6F6C696E672E2E2E0042656448
:1004B0002068656174696E672E2E2E002F2F200034
:1004C0004F6666004F6E2000205A002059005800E9
:1004D00020204D61783A2000205A00205900580011
:1004E00020204D696E3A2000536F667420656E645B
:1004F00073746F70733A200020466C6F773A200057
:1005000050726F7465637465642050696E0A0050A0
:10051000726F6265205A204F66667365743A2000D8
:1005200020643A0020693A0020703A00496E7661F2
:100530006C69642065787472756465720A00206461
:100540003A0020693A0020703A0043290A006162AB
:100550006C656420286D696E2074656D70200043A1
:100560006F6C642065787472756465732061726560
:1005700020004B64200023646566696E6520444555
:100580004641554C545F004B692000236465666901
:100590006E652044454641554C545F004B70200029
:1005A00023646566696E652044454641554C545F39
:1005B00000504944204175746F74756E65206669FA
:1005C0006E697368656421205075742074686520B5
:1005D0006C617374204B702C204B6920616E642019
:1005E0004B6420636F6E7374616E74732066726FF8
:1005F0006D2062656C6F7720696E746F20436F6E3B
:1006000066696775726174696F6E2E680A00504979
:1006100044204175746F74756E65206661696C6500
:1006200064212074696D656F75740A00453120542A
:100630004845524D414C2052554E41574159004278
:10064000454420544845524D414C2052554E415747
:10065000415900546865726D616C2052756E617706
:1006600061790045312048656174696E6720666173
:10067000696C6564004265642068656174696E67D1
:10068000206661696C65640048656174696E672005
:100690006661696C656400504944204175746F74EB
:1006A000756E65206661696C6564212054656D70A6
:1006B0006572617475726520746F6F206869676810
:1006C0000A00204B643A2000204B693A2000204B5E
:1006D000703A20000A20436C6173736963205049AB
:1006E00044200A002054753A2000204B753A20001F
:1006F000206D61783A2000206D696E3A20002064F8
:100700003A200020626961733A2000504944204138
:1007100075746F74756E652073746172740A00501D
:100720004944204175746F74756E65206661696C0B
:100730006564212042616420657874727564657215
:10074000206E756D6265720A004F66660A0046612A
:100750006465204865696768742000426564204CC0
:100760006576656C696E6720004661696C6564201A
:10077000746F20656E61626C6520426564204C6513
:1007800076656C696E670A004D65736820706F69E5
:100790006E742063616E6E6F742062652072657383
:1007A0006F6C7665640A004D34323120696E636F78
:1007B000727265637420706172616D657465722018
:1007C00075736167650A004F6666736574732061AF
:1007D00070706C696564004572723A20546F6F20C6
:1007E0006661722100546F6F206661722066726FBD
:1007F0006D207265666572656E636520706F696EE7
:10080000740A00454550524F4D204F4B0A003F5A45
:10081000206F7574206F662072616E676520282DC9
:10082000323020746F203230290A003A2000507292
:100830006F6265205A204F6666736574004E6F20A4
:1008400063617365206C696768740A004163746949
:1008500076652045787472756465723A2000496E39
:1008600076616C69642065787472756465720A00DB
:100870004534004533004532004531004530005ACB
:1008800032005932005832005A0059005800207086
:1008900072657761726E20666C616720636C65615A
:1008A0007265640A0020737465616C746843686FD4
:1008B00070206D61782073706565643A200020684F
:1008C0006F6D696E672073656E736974697669749C
:1008D000793A20004D65736820706F696E742063EB
:1008E000616E6E6F74206265207265736F6C7665E1
:1008F000640A0025753A2530327500253032753A84
:10090000253032750025756420253032753A253042
:100910003275008C088A088808850882087F087C60
:100920000879087608730870082064726976657221
:100930002063757272656E743A200066616C73652F
:100940000074727565002074656D706572617475F0
:100950007265207072657761726E20747269676764
:10096000657265643A20002063757272656E74204A
:1009700064656372656173656420746F20006D4106
:10098000290A0020647269766572206F7665727438
:10099000656D7065726174757265207761726E69DC
:1009A0006E67212028003A20004472697665722023
:1009B0006572726F720073686F727420746F206753
:1009C000726F756E642028636F696C2042290A007B
:1009D00073686F727420746F2067726F756E642015
:1009E00028636F696C2041290A006F76657274650F
:1009F0006D70657261747572650A00206472697643
:100A00006572206572726F722064657465637465C7
:100A1000643A0A0042696C696E656172204C6576C1
:100A2000656C696E6720477269643A0A0020284441
:100A3000525952554E2900473239204175746F2062
:100A4000426564204C6576656C696E67003F2028BE
:100A50004C2C522C462C4229206F7574206F662036
:100A6000626F756E64732E0A003F285629657262A4
:100A70006F7365206C6576656C20697320696D7095
:100A80006C61757369626C652028302D34292E0ADB
:100A900000426164205A2076616C75650A004E6FD1
:100AA0002062696C696E65617220677269640A0010
:100AB00024F4D43050C38E20C2A24017828B701110
:100AC000127A910D816CD90AA861E108C7586607AE
:100AD000615143061E4B5D05C145A7041A4111042F
:100AE000093D9803713931034036DB0265339102C9
:100AF000D4305402802E1D02632CEE01752AC501EC
:100B0000B028A001102781018F2564012B244B01FF
:100B1000E0223401AC211F018D200D01801FFC005B
:100B2000841EED00971DDF00B81CD200E61BC60036
:100B3000201BBC00641AB200B219A8000A19A00058
:100B40006A189900D117910040178B00B5168400E0
:100B500031167E00B31579003A157300C7146F0083
:100B600058146A00EE1366008813630025135E00B4
:100B7000C7125B006C12570015125400C1115100CE
:100B800070114F0021114B00D61049008D10470005
:100B90004610440002104200C00F4000800F3E008B
:100BA000420F3C00060F3B00CB0E3800930E37007F
:100BB0005C0E3500270E3400F30D3200C10D3100FC
:100BC000900D3000600D2E00320D2D00050D2C0013
:100BD000D90C2B00AE0C2900850C29005C0C2700D9
:100BE000350C27000E0C2600E80B2400C40B240053
:100BF000A00B23007D0B23005A0B2100390B210091
:100C0000180B2000F80A1F00D90A1E00BB0A1E009C
:100C10009D0A1D00800A1D00630A1C00470A1B0074
:100C20002C0A1B00110A1A00F7091A00DD09190025
:100C3000C4091900AB091900920917007B091800B3
:100C4000630917004C091600360916002009160022
:100C50000A091500F5081500E0081400CC08140076
:100C6000B8081400A4081400900813007D081200AE
:100C70006B081300580812004608120034081100CF
:100C8000230811001208110001081100F0071000DC
:100C9000E0071000D0071000C0071000B0070F00D9
:100CA000A107100091070E0083070F0074070F00C3
:100CB00065070E0057070E0049070E003B070D00A1
:100CC0002E070E0020070D0013070D0006070D006C
:100CD000F9060C00ED060D00E0060C00D4060C0031
:100CE000C8060C00BC060C00B0060C00A4060B00E5
:100CF00099060C008D060B0082060B0077060B0090
:100D00006C060B0061060A0057060B004C060A0031
:100D100042060A0038060A002E060A0024060A00C7
:100D20001A060A001006090007060A00FD05090058
:100D3000F4050900EB050900E2050900D9050900E1
:100D4000D0050900C7050900BE050900B505080062
:100D5000AD050800A50509009C05080094050800DC
:100D60008C050800840508007C050800740508004F
:100D70006C050700650508005D05070056050800BD
:100D80004E05070047050700400508003805070025
:100D9000310507002A050700230507001C0506008A
:100DA000160507000F0507000805060002050700E5
:100DB000FB040600F5040700EE040600E804060044
:100DC000E2040700DB040600D5040600CF04060099
:100DD000C9040600C3040600BD040600B7040600EB
:100DE000B1040500AC040600A6040600A00405003A
:100DF0009B04060095040500900406008A04050083
:100E000085040500800406007A04050075040500C9
:100E1000700405006B04050066040500610405000C
:100E20005C04050057040500520405004D0405004C
:100E300048040500430405003E0404003A0405008C
:100E400035040500300404002C04050027040400C8
:100E5000230405001E0404001A04040016040500FF
:100E6000110404000D040400090405000404040036
:100E700000040400FC030400F8030400F40304006D
:100E8000F0030400EC030400E8030400E40304009E
:100E9000E0030400DC030400D8030400D4030400CE
:100EA000D0030400CC030400C8030300C5030300FF
:100EB00024F404D9201BC40C5C0E9804C4095F02FE
:100EC00065077101F405F900FB04B30048048700CD
:100ED000C10369005803550003034500BE023A00F0
:100EE0008402310053022A00290225000402200056
:100EF000E4011C00C8011900AF011700980114009B
:100F000084011300710110006101100051010E00F5
:100F100043010D0036010B002B010B0020010B00DB
:100F2000150109000C01090003010800FB0008007D
:100F3000F3000800EB000700E4000600DE000600F6
:100F4000D8000600D2000600CC000500C70005004E
:100F5000C2000500BD000400B9000400B500040093
:100F6000B1000400AD000400A9000400A5000300C6
:100F7000A20003009F0004009B00030098000300F0
:100F80009500020093000300900003008D00020012
:100F90008B0003008800020086000200840003002A
:100FA000810002007F0002007D0002007B00020041
:100FB0007900020077000100760002007400020050
:100FC00072000100710002006F0002006D0001005C
:100FD0006C0002006A000100690002006700010065
:100FE000660001006500010064000200620001006B
:100FF00061000100600001005F0002005D0001006F
:101000005C0001005B0001005A0001005900010072
:101010005800010057000100560001005500010072
:101020005400010053000000530001005200010071
:1010300051000100500001004F0001004E0000006F
:101040004E0001004D0001004C0001004B0000006B
:101050004B0001004A000100490001004800000067
:101060004800010047000100460000004600010062
:10107000450000004500010044000100430000005D
:101080004300010042000000420001004100000056
:1010900041000100400001003F0000003F0001004E
:1010A0003E0000003E0001003D0000003D00010048
:1010B0003C0000003C0000003C0001003B00000040
:1010C0003B0001003A0000003A0001003900000036
:1010D000390001003800000038000000380001002D
:1010E0003700000037000100360000003600000025
:1010F0003600010035000000350000003500010019
:10110000340000003400000034000100330000000F
:101110003300000033000100320000003200000004
:1011200032000100310000003100000031000100F8
:101130003000000030000000300001002F000000EF
:101140002F0000002F0000002F0001002E000000E3
:101150002E0000002E0001002D0000002D000000D8
:101160002D0000002D0001002C0000002C000000CC
:101170002C0000002C0001002B0000002B000000C0
:101180002B0000002B0001002A0000002A000000B4
:101190002A0000002A0001002900000029000000A8
:1011A000290000002900000029000100280000009B
:1011B000280000002800000028000000280001008E
:1011C0002700000027000000270000002700000083
:1011D0002700010026000000260000002600000075
:1011E0002600000026000100250000002500000068
:1011F000250000002500000025000000250001005A
:10120000240000002400000024000000240000004E
:101210002400010023000000230000002300000040
:101220002300000023000000230000002300010031
:101230002200000022000000220000002200000026
:101240002200000022000100210000002100000017
:10125000210000002100000021000000210000000A
:1012600021000100200000002000000020000000FC
:1012700020000000200000002000000020000000EE
:10128000200001001F0000001F0000001F000000E0
:101290001F0000001F0000001F0000001F000100D1
:1012A0001E0000001E0000001E0000001E000000C6
:1012B000232C0000B8220000561800003A0F00004E
:1012C000B8080000B1040000710200003E010000F7
:1012D0003F4B2076616C7565206F7574206F6620BA
:1012E00072616E67652028302D3130292E0A004149
:1012F0006476616E6365204B3D004E6F206D6F76A6
:10130000652E004572723A207574663820666F6EDD
:1013100074206E6F7420696E697469616C697A6596
:10132000642E004572723A207574663820666F6EBE
:1013300074206E6F7420696E697469616C697A6576
:10134000642E007A5F6D696E3A2000795F6D696E78
:101350003A2000785F6D696E3A20005265706F72B6
:1013600074696E6720656E6473746F702073746146
:101370007475730A00FFFDFCFAF8F6F4F2F0EEEC77
:10138000EAE9E7E5E3E1E0DEDCDAD9D7D5D4D2D08B
:10139000CFCDCBCAC8C7C5C3C2C0BFBDBCBAB9B721
:1013A000B6B4B3B2B0AFADACAAA9A8A6A5A4A2A189
:1013B000A09E9D9C9A99989795949392908F8E8DCC
:1013C0008B8A8988878684838281807F7E7D7B7AF1
:1013D000797877767574737271706F6E6D6C6B6AF5
:1013E000696867666564636261605F5E5D5C5B5AE5
:1013F0005958585756555453525150504F4E4D4CC2
:101400004B4A4A4948474646454443424241403F89
:101410003E3E3D3C3B3B3A39383837363535343340
:1014200032323130302F2E2E2D2C2B2B2A292928E9
:10143000272726252524232322212120201F1E1E85
:101440001D1C1C1B1B1A1919181817161615151414
:10145000131312121111100F0F0E0E0D0D0C0C0B99
:101460000A0A090908080707060605050404030314
:1014700002020100000000000100000001000080E5
:1014800000555555000000400033333300AAAA2A06
:10149000004992240000002000C7711C009999198E
:1014A00000D1451700555515003BB11300244912D2
:1014B0000011111100000010000F0F0F00E3380E93
:1014C0000043790D00CCCC0C00C3300C00E8A20B1B
:1014D0000064210B00AAAA0A00703D0A009DD809E9
:1014E00000427B090092240900DCD30800888808A8
:1014F000001042080000000800F0C10700878707BD
:101500000075500700711C07003EEB0600A1BC06E9
:10151000006990060066660600703E0600611806C7
:101520000017F4050074D105005BB00500B290050A
:1015300000627205005555050078390500B81E0592
:1015400000050505004EEC040087D40400A1BD048D
:101550000090A7040049920400C17D0400EE6904D4
:1015600000C7560400444404005C3204000821040F
:101570000041100400000004003FF00300F8E00305
:101580000026D20300C3C30300CCB503003AA8036E
:10159000000A9B0300388E0300C08103009F75037F
:1015A00000D0690300505E03001D5303003448035C
:1015B00000913D03003333030016290300381F0355
:1015C0000097150300300C0300030303000BFA021D
:1015D0000049F10200BAE802005CE002002DD802E6
:1015E000002DD0020059C80200B0C0020031B9027B
:1015F00000DAB10200AAAA0200A0A30200BC9C0269
:1016000000FA9502005C8F0200DF880200828202ED
:1016100000457C02002776020027700200436A0220
:10162000007C640200D05E02003F590200C85302F1
:101630000020746F6F206C6F6E6720657874727510
:1016400073696F6E2070726576656E7465640A00EA
:1016500020636F6C6420657874727573696F6E2097
:1016600070726576656E7465640A00486F6D696EA8
:1016700067206661696C65640000007A430000526F
:1016800043000034430000000000005CC200000082
:10169000000000000000005CC200000000000048E4
:1016A0004200004842000080400000000057617284
:1016B0006E696E673A20486F6D696E672042756D7E
:1016C000702044697669736F72203C20310A0002F1
:1016D00002040000000000000000000000400000C4
:1016E0007A430080844300003443FFFFFF656E713E
:1016F00075657565696E672022004D3234004D3284
:10170000332025730053442063617264206F6B0A99
:10171000006F70656E526F6F74206661696C6564EE
:101720000A00766F6C756D652E696E69742066614E
:10173000696C65640A00534420696E6974206661AF
:10174000696C0A0057726974696E6720746F20664D
:10175000696C653A20006F70656E206661696C6522
:10176000642C2046696C653A20006F70656E2066B7
:1017700061696C65642C2046696C653A2000466995
:101780006C652073656C65637465640A0020536939
:101790007A653A200046696C65206F70656E6564F5
:1017A0003A2000667265736800646F696E67002096
:1017B00066696C653A20004E6F772000454E4420E4
:1017C000535542524F5554494E450A002220706FDE
:1017D00073002220706172656E743A220053554284
:1017E000524F5554494E452043414C4C2074617230
:1017F0006765743A22004B494C4C45442E200074D6
:101800007279696E6720746F2063616C6C207375E8
:10181000622D67636F64652066696C657320776904
:10182000746820746F6F206D616E79206C657665C9
:101830006C732E204D4158206C6576656C20697361
:101840003A004572726F723A006F70656E20666181
:10185000696C65642C2046696C653A200043616EB2
:101860006E6F74206F70656E20737562646972208C
:10187000006563686F3A0020746F6F206C6F6E674D
:1018800020657874727573696F6E20707265766505
:101890006E7465640A0020636F6C642065787472EE
:1018A0007573696F6E2070726576656E7465640A13
:1018B00000536C6565702E2E2E000200000A0B028C
:1018C000090C0D0E080703040100000000000000D1
:1018D0000000000000000000000000000000000008
:1018E00000000000000000121110000000000000C5
:1018F00000000000000000000000000000000000E8
:10190000001FFFFFFFFFFFFF600000000001FF401E
:101910000000000000FF8000000000007F83CF0077
:10192000000C303F87FF80000C301F867980000C50
:10193000000F8C30C7838C30E78C30CFC7CC31F3AD
:101940008C30DCECEC33B98C30D86C6C33198C30C7
:10195000D06C0C33198C30D86C0C33198C30DC6C97
:101960000E3B198C30CF7C079F198C30C77C038FBE
:101970001940000000000002600000000000061F87
:10198000FFFFFFFFFFF82020506C616E6E65724212
:10199000756666657242797465733A2000204672F6
:1019A0006565204D656D6F72793A2000436F6D70EB
:1019B000696C65643A2041756720333120323031DB
:1019C000380A00207C20417574686F723A20286EB6
:1019D0006F6E652C2064656661756C7420636F6E34
:1019E000666967290A00323031382D30312D3230A6
:1019F00000204C61737420557064617465643A20F2
:101A0000006275676669782D322E302E780A004D97
:101A100061726C696E0020536F6674776172652025
:101A200052657365740A00205761746368646F6758
:101A30002052657365740A002042726F776E206FC2
:101A400075742052657365740A0020457874657258
:101A50006E616C2052657365740A00506F77657211
:101A600055700A0073746172740A006175746F2591
:101A7000692E67006572726F722077726974696E81
:101A80006720746F2066696C650A00446F6E65207C
:101A9000736176696E672066696C652E0A004D3247
:101AA0003900456E6473746F70732025632025635D
:101AB00020256320256300205A3A0020593A00204F
:101AC000583A00656E6473746F7073206869743A75
:101AD000200000060C00FE07022903BF017FFE085C
:101AE000FE08FE05080806000040F0C888889878BF
:101AF00010050808060000C0F88888888888F8055E
:101B000005050600012030F8302005080806000011
:101B10002070F820202020E00509090600FF207031
:101B2000A8A8B8888870200509090600FFE080C0D1
:101B3000B0A8283028280509090600FFF8A88888D9
:101B4000888888A8F8050A0A0600FE2050505050E0
:101B500088A8A8887003030306000340A040FFFF85
:101B6000FFFFFFFFFFFFFFFFFFFFFFFFFFFFFFFF85
:101B7000FFFFFFFF0000000605FF01070706020048
:101B800080808080800080030303060105A0A0A060
:101B900005060606000050F85050F85005090906E1
:101BA00000FF2070A8A07028A87020050707060075
:101BB00000C8C8102040989805070706000040A0FC
:101BC000A040A890680103030602058080800309F5
:101BD000090601FF20404080808040402003090921
:101BE0000601FF8040402020204040800507070676
:101BF000000020A8702070A820050505060001201F
:101C000020F820200203030601FFC04080050101E7
:101C1000060003F8020202060100C0C0050707061D
:101C200000000810102040408005070706000070E3
:101C30008898A8C8887003070706010040C0404084
:101C40004040E0050707060000708808102040F8B3
:101C5000050707060000F808103008887005070718
:101C600006000010305090F810100507070600001D
:101C7000F880F008088870050707060000304080EB
:101C8000F0888870050707060000F808101020206B
:101C9000200507070600007088887088887005078F
:101CA00007060000708888780810600205050601A4
:101CB00000C0C000C0C00206060601FFC0C000C0D0
:101CC00040800305050601012040804020050303F4
:101CD000060002F800F803050506010180402040D7
:101CE00080050707060000708810202000200507E7
:101CF000070600007088B8A8B880700507070600BE
:101D000000708888F8888888050707060000F04872
:101D100048704848F00507070600007088808080FA
:101D20008870050707060000F04848484848F00555
:101D30000707060000F88080F08080F80507070696
:101D40000000F88080F080808005070706000070A2
:101D5000888080988870050707060000888888F8C2
:101D6000888888030707060100E04040404040E0C3
:101D700005070706000038101010109060050707CF
:101D80000600008890A0C0A0908805070706000004
:101D9000808080808080F805070706000088D8A82A
:101DA000888888880507070600008888C8A898885A
:101DB00088050707060000708888888888700507EE
:101DC00007060000F08888F080808005070706007D
:101DD0000070888888A89068050707060000F088CA
:101DE00088F0A090880507070600007088807008BA
:101DF0008870050707060000F82020202020200515
:101E00000707060000888888888888700507070605
:101E10000000888888885050200507070600008841
:101E2000888888A8A85005070706000088885020E1
:101E30005088880507070600008888502020202049
:101E4000050707060000F80810204080F80309097C
:101E50000601FFE080808080808080E00507070623
:101E60000000804040201010080309090601FFE02F
:101E700020202020202020E005030306000520501C
:101E8000880501010600FEF80303030601058040F2
:101E90002005050506000070087888780507070604
:101EA00000008080F0888888F00505050600007035
:101EB00080808870050707060000080878888888F1
:101EC000780505050600007088F080700507070694
:101ED0000000304840E04040400507070600FE7023
:101EE0008888887808700507070600008080F088D9
:101EF0008888880307070601004000C0404040E092
:101F00000409090601FE1000301010101090600541
:101F1000070706000080808890E090880307070686
:101F20000100C04040404040E0050505060000D0EB
:101F3000A8A8A8A8050505060000B0C888888805D7
:101F4000050506000070888888700507070600FEF2
:101F5000F0888888F080800507070600FE7888886A
:101F600088780808050505060000B0C8808080054F
:101F7000050506000078807008F0050707060000D8
:101F80002020F820202018050505060000888888F4
:101F90009868050505060000888888502005050515
:101FA0000600008888A8A85005050506000088508E
:101FB0002050880507070600FE888888502040804A
:101FC000050505060000F8102040F8030909060180
:101FD000FF2040404080404040200109090602FFA8
:101FE0008080808080808080800309090601FF80D6
:101FF000404040204040408005030306000248A8BE
:1020000090FF00002100240027002A002D0030004E
:10201000330001010000040107010A0145787472D0
:1020200075646572004D6F7665205A004D6F766558
:102030002059004D6F7665205800507265706172AE
:102040006500496E697469616C697A65204545501F
:10205000524F4D00436F6E74726F6C005265737413
:102060006F7265206661696C73616665004C6F61B3
:10207000642073657474696E677300496E6974696E
:10208000616C697A6520454550524F4D0053746F1D
:1020900072652073657474696E67730046696C615C
:1020A0006D656E74004D6F74696F6E0054656D7070
:1020B00065726174757265004D61696E005072657C
:1020C000686561742041425320636F6E66005072F0
:1020D000656865617420504C4120636F6E660050E6
:1020E00049442D44005049442D44005049442D4951
:1020F000005049442D49005049442D500050494456
:102100002D5000200820466163740020082046619D
:102110006374002008204D6178002008204D61780C
:10212000002008204D6178002008204D696E0020B5
:1021300008204D696E002008204D696E004F6666CC
:10214000004F6E20004175746F74656D70004661BC
:102150006E2073706565640046616E2073706565FE
:10216000640042656400426564004E6F7A7A6C6573
:10217000004E6F7A7A6C6500436F6E74726F6C00FC
:1021800053746F72652073657474696E677300426F
:10219000656400426564004E6F7A7A6C65004E6F2C
:1021A0007A7A6C650046616E2073706565640046DE
:1021B000616E2073706565640054656D7065726151
:1021C0007475726500507265686561742041425390
:1021D00020456E6400507265686561742041425309
:1021E0002042656400507265686561742041425305
:1021F00000507265706172650053746F7265207370
:10220000657474696E6773004C6F616420736574E4
:1022100074696E67730050726F6265205A204F6652
:102220006673657400466164652048656967687413
:10223000004661646520486569676874004F66669A
:10224000004F6E2000426564204C6576656C696EB7
:1022500067004C6576656C20626564004732380A19
:1022600047323900473239004175746F20686F6D0D
:1022700065004732380050726570617265004D34F8
:102280003238005072656865617420504C410043DB
:102290006F6F6C646F776E00507265686561742053
:1022A0004142530044697361626C652073746570C8
:1022B00070657273004D38340053657420686F6D1B
:1022C00065206F66667365747300426564204C65B3
:1022D00076656C696E67004175746F20686F6D6517
:1022E00000473238004D6F76652061786973004D84
:1022F00061696E004D6F76652058004D6F766520E0
:1023000059004D6F7665205A004578747275646582
:1023100072004D6F766520302E316D6D004D6F76F9
:102320006520316D6D004D6F76652031306D6D002B
:102330004D6F7665206178697300457874727564B5
:102340006572004D6F7665205A004D6F7665205995
:10235000004D6F76652058006F6B007C3C3E5E2B15
:102360003D3F2F5B5D3B2C2A225C006265640A00C6
:102370002C2073797374656D2073746F707065644D
:1023800021204865617465725F49443A20004361C9
:1023900072642072656D6F766564004361726420BB
:1023A000696E73657274656400202020202020000F
:1023B0002020202000092000000000000000000074
:1023C000000000003FFFF0000000000000000000DF
:1023D0000000003800700000000000000000000055
:1023E000000030FC30000000000000000000000091
:1023F0000020FC10000000000000000000000000B1
:102400002078100000000000000000000000002004
:1024100030100000000000000000000000002C0050
:10242000D03FC0000000000000002082002E31D00C
:102430007FE0000000000000001041002F7BD07FF3
:10244000E0000000000000001041002F7BD07FE082
:10245000000000000000002082002E31D03FC000AC
:102460000000000000004104002C00D03FC000002C
:1024700000000000008208002030107FE000000013
:10248000000000008208002078107FE000000000BB
:1024900000000041040020FC107FE000000000006C
:1024A000000020820030FC301F800000000000008F
:1024B000000000003800700F000000000000000065
:1024C000FFFFC03FFFF0060000000000000000FF1B
:1024D000FFC000000000000000000000000000003D
:1024E000003FFFF0000000000000000000000000BE
:1024F0003800700000000000000000000000003103
:10250000863000000000000000000000000023876B
:10251000100000000000000000000000002787906D
:102520000000000000000000000000002F87D00025
:1025300000000000000000000000002F03D03FC09A
:10254000000000000000002082002030107FE0002A
:102550000000000000001041002078107FE0000023
:1025600000000000001041002078107FE000000013
:10257000000000002082002030103FC0000000005A
:102580000000004104002F03D03FC0000000000005
:1025900000008208002F87D07FE0000000000000CC
:1025A000008208002787907FE00000000000000004
:1025B0004104002387107FE000000000000000209D
:1025C00082003186301F8000000000000000000003
:1025D000003800700F0000000000000000FFFFC086
:1025E0003FFFF0060000000000000000FFFFC000F9
:1025F0000000427572702056322E302052656164A0
:10260000792E005072696E74696E672E2E2E0050FE
:1026100072696E7420706175736564001000C90280
:1026200010012C014001220170011801B0010E01BE
:10263000F00104015002FA00B002F0003003E6009D
:10264000D003DC009004D2007005C800A006BE00D4
:102650000008B400B009AA00D00BA000600E9600DC
:1026600060118C000015820020197800C01D6E00DA
:10267000A0226400B0275A00902C50000031460080
:10268000E0343C0010383200903A2800603C1E00D4
:10269000A03D1400803E0A00203F000042656420F7
:1026A00068656174696E67206661696C656400487D
:1026B000656174696E67206661696C6564004531A7
:1026C0002048656174696E67206661696C656400A5
:1026D00048656174696E67206661696C6564004B6A
:1026E000494C4C45442E2000202D20496E76616CCB
:1026F0006964206578747275646572206E756D62A8
:10270000657220210A0040012C0173012201AB01F6
:102710001801F3010E0148020401AC02FA002A0379
:10272000F000C303E6008004DC006D05D2006C06F7
:10273000C800C707BE007009B4006D0BAA00CB0D1E
:10274000A000CF138C00F21B7800E9246400142E43
:1027500050009C353C00B83A2800A03D14000B3FC7
:102760000000453120544845524D414C2052554EB1
:10277000415741590042454420544845524D414C2F
:102780002052554E4157415900546865726D616C35
:102790002052756E61776179004531204572723A39
:1027A000204D415854454D50004572723A204D41DC
:1027B0005854454D5020424544004D415854454DD4
:1027C0005020747269676765726564004531204501
:1027D00072723A204D494E54454D50004572723A3E
:1027E000204D494E54454D5020424544004D494EE0
:1027F00054454D5020747269676765726564004D79
:10280000383420582059205A204500202F002042DB
:10281000403A0020403A0020496E76616C6964209D
:102820006578747275646572200056652D6A6572EC
:102830006B0056652D6A65726B0056652D6A657270
:102840006B00567A2D6A65726B00567A2D6A657236
:102850006B0056792D6A65726B0056792D6A657228
:102860006B0056792D6A65726B0056782D6A657219
:102870006B0056782D6A65726B0056782D6A65720A
:102880006B004D6F74696F6E004573746570732FC4
:102890006D6D004573746570732F6D6D005A7374A0
:1028A0006570732F6D6D005A73746570732F6D6D45
:1028B000005973746570732F6D6D00597374657072
:1028C000732F6D6D005873746570732F6D6D0058A4
:1028D00073746570732F6D6D004D6F74696F6E004A
:1028E00053746570732F6D6D004A65726B004163A0
:1028F00063656C65726174696F6E0056656C6F63B9
:102900006974790050726F6265205A204F66667351
:10291000657400436F6E74726F6C0046696C2E2094
:102920004469612E0046696C2E204469612E004F77
:102930006666004F6E20004520696E206D6D330085
:10294000416476616E6365204B00416476616E631D
:1029500065204B00436F6E74726F6C0043616E6E46
:102960006F7420656E746572207375626469723A63
:102970002000022E2E004D61696E005072696E7447
:102980002061626F72746564005072696E742066B3
:10299000726F6D2053440053746F70207072696EB3
:1029A0007400526573756D65207072696E74004EA7
:1029B0006F20534420636172640050617573652019
:1029C0007072696E7400436F6E74726F6C00507237
:1029D00065706172650054756E6500496E666F20A2
:1029E00073637265656E000E000E000E000E000E21
:1029F000000E000E000E007FC03F801F000E00047E
:102A00000004000E001F003F807FC00E000E000E6D
:102A1000000E000E000E000E000E0003F8000FFE68
:102A2000001E0F00380700380380700380700FE02D
:102A30007007C0700380700100700000380000381B
:102A400007001E0F000FFE0003F80000FE0003FF4A
:102A5000800783C00E01C00E00E01C00E07F00E094
:102A60003E00E01C00E00800E00000E00001C00EB5
:102A700001C00F078007FF0001FC00FFFFFF7F8000
:102A8000FFC0FFC0FFC07F807F80FFC0FFC0FFC0CE
:102A90003F001E000C0050726F6265205A204F6686
:102AA000667365740050726F6265205A204F6666C7
:102AB00073657400466C6F7700466C6F77004661F3
:102AC0006E2073706565640046616E207370656585
:102AD000640042656400426564004E6F7A7A6C65FA
:102AE000004E6F7A7A6C65004661646520486569BE
:102AF00067687400466164652048656967687400AA
:102B00005370656564005370656564004D61696E5E
:102B1000005072656865617420504C4120456E64B8
:102B2000005072656865617420504C4120426564B4
:102B3000005072656865617420504C4100507265A8
:102B40007061726500000020002300260029002C1F
:102B5000002F0032000001000003010601090100FE
:102B6000002200250028002B002E00310034000236
:102B7000010000050108010B010505050507050811
:102B8000080808020202020A0A08080404040401F0
:102B90000101010101010103030303030303030412
:102BA0000707070C0C0C0C0C0C0C0C0202020206A2
:102BB000060606060606060B0B0B0B0B0B0B0B0192
:102BC000021020200808102040102040800201023E
:102BD0000108040201010204081020408080402006
:102BE0001008040201800402018040201008040241
:102BF00001080402010102040810204080010204BF
:102C000008102040804C656176696E672047323637
:102C1000004732362048656174696E67204E6F7ACE
:102C20007A6C652E004732362048656174696E679C
:102C3000204265642E00446F6E65205072696D6994
:102C40006E67004669786564204C656E677468201D
:102C50005072696D652E00557365722D436F6E74E9
:102C6000726F6C6C6564205072696D65002C206514
:102C7000793D0029202D3E202865783D002C2073C9
:102C8000793D0020436F6E6E656374696E672077CF
:102C900069746820766572746963616C206C696E12
:102CA00065202873783D002C2065793D0029202D72
:102CB0003E202865783D002C2073793D0020436F2D
:102CC0006E6E656374696E67207769746820686FDB
:102CD00072697A6F6E74616C206C696E65202873FE
:102CE000783D004C656176696E6720473236003F5B
:102CF00053706563696669656420582C5920636F59
:102D00006F7264696E617465206F7574206F6620E0
:102D1000626F756E64732E0A003F285229657065D4
:102D200061742076616C7565206E6F7420706C61C3
:102D3000757369626C653B206D75737420626520E4
:102D40006174206C6561737420312E0A003F5370EA
:102D500065636966696564206E6F7A7A6C65207454
:102D6000656D7065726174757265206E6F74207028
:102D70006C61757369626C652E0A003F5370656300
:102D800069666965642066696C616D656E7420733F
:102D9000697A65206E6F7420706C61757369626CFE
:102DA000652E0A003F53706563696669656420702B
:102DB00072696D65206C656E677468206E6F742033
:102DC000706C61757369626C652E0A003F537065A3
:102DD000636966696564206E6F7A7A6C65207369D1
:102DE0007A65206E6F7420706C61757369626C65B2
:102DF0002E0A003F52657472616374696F6E204DD4
:102E0000756C7469706C696572206D75737420627D
:102E100065207370656369666965642E0A003F53B7
:102E20007065636966696564205265747261637474
:102E3000696F6E204D756C7469706C696572206E77
:102E40006F7420706C61757369626C652E0A003F47
:102E5000537065636966696564206C617965722089
:102E6000686569676874206E6F7420706C61757333
:102E700069626C652E0A003F537065636966696517
:102E800064206265642074656D706572617475722A
:102E900065206E6F7420706C61757369626C65205B
:102EA0002834302D31343043292E0A004732362061
:102EB000636F6D6D616E6420737461727465642EEE
:102EC0002057616974696E6720666F72206865615A
:102ED0007465722873292E0A00454550524F4D20C3
:102EE0006461746173697A65206572726F722E0A0B
:102EF00000290A002062797465733B2063726320A5
:102F0000002073746F7265642073657474696E67F2
:102F100073207265747269657665642028002028C4
:102F200063616C63756C6174656429210A002021FA
:102F30003D2000454550524F4D20435243206D697E
:102F4000736D61746368202D202873746F726564DB
:102F50002920002053697A653A2000496E6465781B
:102F60003A2000204D61726C696E3D563535290A54
:102F70000028454550524F4D3D00454550524F4D5C
:102F80002076657273696F6E206D69736D6174630D
:102F90006820006F6B00526573656E643A20004BC9
:102FA000494C4C45442E200053544F505045442E1C
:102FB00020005072696E7465722073746F70706552
:102FC000642064756520746F206572726F72732E51
:102FD0002046697820746865206572726F7220617E
:102FE0006E6420757365204D39393920746F2072F5
:102FF0006573746172742E202854656D70657261FA
:10300000747572652069732072657365742E205320
:1030100065742069742061667465722072657374CA
:10302000617274696E67290A004E6F204368656398
:103030006B73756D2077697468206C696E65206E9E
:10304000756D6265722C204C617374204C696E65DD
:103050003A20004E6F20436865636B73756D20776F
:10306000697468206C696E65206E756D6265722C7E
:10307000204C617374204C696E653A20006368656A
:10308000636B73756D206D69736D617463682C205B
:103090004C617374204C696E653A20004C696E6512
:1030A000204E756D626572206973206E6F74204CBE
:1030B000617374204C696E65204E756D6265722B6C
:1030C000312C204C617374204C696E653A20004DA0
:1030D000313130004D33310053442072656164203A
:1030E0006572726F720A00446F6E65207072696E4D
:1030F00074696E672066696C650A004F66660A002F
:103100004F6E0A004732362044656275673A2000E8
:103110004D6573682056616C69646174696F6E20D7
:1031200053746F707065642E00696E206D6F7665E4
:103130005F746F282920666565645F76616C7565CC
:1031400020666F722058593A004572726F7220776C
:10315000726974696E6720746F20454550524F4DF7
:10316000210A004361703A00544845524D414C5F7A
:1031700050524F54454354494F4E004155544F52BD
:1031800045504F52545F53445F535441545553007C
:10319000454D455247454E43595F50415253455264
:1031A00000434153455F4C494748545F42524947A9
:1031B00048544E45535300544F47474C455F4C4984
:1031C0004748545300534F4654574152455F504F60
:1031D000574552004255494C445F50455243454E75
:1031E00054004C4556454C494E475F4441544100BC
:1031F0005A5F50524F4245004155544F4C45564539
:103200004C005052494E545F4A4F420050524F4773
:1032100052455353004155544F5245504F52545FFD
:1032200054454D5000564F4C554D4554524943005E
:10323000454550524F4D0053455249414C5F584F00
:103240004E5F584F4646004649524D574152455FE2
:103250004E414D453A4D61726C696E2062756766EC
:1032600069782D322E302E7820284769746875626F
:103270002920534F555243455F434F44455F5552B4
:103280004C3A68747470733A2F2F6769746875626A
:103290002E636F6D2F4D61726C696E4669726D772A
:1032A0006172652F4D61726C696E2050524F544FA0
:1032B000434F4C5F56455253494F4E3A312E3020C2
:1032C0004D414348494E455F545950453A42757205
:1032D000702056322E302045585452554445525F86
:1032E000434F554E543A3120555549443A6365642D
:1032F00065326132662D343161322D343734382DE8
:10330000396231322D63353563363266333637668E
:10331000660A0036372603FFFFFF283C3D380EFFC4
:10332000FFFF2A2E303E12FFFFFFFF41FF0C08096E
:10333000FFFFFF1A1C18FFFF3F08440AFF4300016C
:10334000627573793A2070617573656420666F7277
:1033500020696E7075740A00627573793A20706125
:103360007573656420666F7220757365720A0062FA
:103370007573793A2070726F63657373696E670A4B
:10338000004B494C4C45442E20004B494C4C20638B
:103390006175736564206279204B494C4C206275DD
:1033A00074746F6E2F70696E0A004B494C4C454423
:1033B0002E20004B494C4C2063617573656420627C
:1033C0007920746F6F206D75636820696E61637416
:1033D0006976652074696D65202D2063757272654C
:1033E0006E7420636F6D6D616E643A2000506C6581
:1033F000617365207265736574005052494E54457F
:10340000522048414C544544005072696E746572B4
:103410002068616C7465642E206B696C6C282920AF
:1034200063616C6C6564210A00286E6F2066696CAC
:1034300065290043757272656E742066696C653A21
:1034400020005344207072696E74696E672062793F
:10345000746520004E6F74205344207072696E743E
:10346000696E670A00290A002062797465733B203F
:10347000637263200053657474696E6773205374BC
:103480006F7265642028005654726176206D696EF3
:10349000005654726176206D696E005654726176E2
:1034A000206D696E00566D696E00566D696E00562E
:1034B0006D696E00566D6178204500566D6178200B
:1034C0004500566D6178204500566D6178205A00A0
:1034D000566D6178205A00566D6178205A00566DFD
:1034E0006178205900566D6178205900566D6178D9
:1034F000205900566D6178205800566D617820582B
:1035000000566D61782058004D6F74696F6E0041F0
:103510006D6178204500416D6178204500416D6105
:1035200078205A00416D6178205A00416D61782001
:103530005900416D6178205900416D617820580033
:10354000416D6178205800412D74726176656C0080
:10355000412D74726176656C00412D7265747261E3
:10356000637400412D72657472616374004163631A
:10357000656C00416363656C004D6F74696F6E002C
:1035800048617264636F6465642044656661756C4C
:10359000742053657474696E6773204C6F61646541
:1035A000640A00B80B0000B80B00006400000010B3
:1035B00027000000009643000096430000A0400052
:1035C00000C8410000C8420000C8420000C84300D3
:1035D000801743427572702056322E30204F666637
:1035E0002E0020573A004520436F6F6C696E672E9E
:1035F0002E2E00452048656174696E672E2E2E00C0
:10360000205400205200416363656C6572617469E7
:103610006F6E3A2050005741524E494E4721204C80
:103620006F77205A204A65726B206D6179206C6536
:10363000616420746F20756E77616E7465642070AC
:1036400061757365732E0A00205A3A0020593A00BA
:1036500020436F756E7420583A0020453A00205A76
:103660003A0020593A00583A00434F4D4D554E49C3
:10367000434154494F4E0044525952554E00455211
:10368000524F525300494E464F004543484F004D5C
:1036900031343520533C696E6465783E206F757413
:1036A000206F662072616E67652028302D31290AEF
:1036B000004D3131332053006F6666008A368536FF
:1036C0007E367736693644454255473A0045727230
:1036D0003A207574663820666F6E74206E6F7420A1
:1036E000696E697469616C697A65642E00556E6BE8
:1036F0006E6F776E20636F6D6D616E643A2022008D
:10370000486F6D6520257325732573206669727374
:1037100074002066697273740A005A0059005800D8
:10372000486F6D65200050726F62696E6720666138
:10373000696C65640A0050726F62696E6720666129
:10374000696C656400205A3A200020593A200042F2
:10375000656420583A200000E800CA0011241FBE0A
:10376000CFEFD1E2DEBFCDBF00E00CBF13E0A0E0A1
:10377000B2E0E2E7FCE602E00BBF02C007900D9268
:10378000AC37B107D9F728E1ACE7B3E001C01D922F
:10379000A637B207E1F71BE1CDEADBE100E006C0A6
:1037A00021970109802FFE010F949D35CC3AD10756
:1037B00080E00807A9F70F94EC1C0D9428360C94B0
:1037C00000002F923F924F925F926F927F928F9262
:1037D0009F92AF92BF92CF92DF92EF92FF920F93A0
:1037E0001F93CF93DF93CDB7DEB7CF58D1090FB674
:1037F000F894DEBF0FBECDBF2DB73EB7C657DF4F23
:1038000039832883CA58D0400091970F30E6039F30
:1038100080011124095E114F80915C0480FF07C074
:1038200081E798E10E94AD5BC8010E946693109207
:103830001112109210128FE38093A4031092A3032D
:103840001092A2031092960310929703109298037D
:1038500010929903C8018C01DC012C910196203251
:10386000D1F32E34D1F411968C9190ED980F9A30BB
:1038700020F08D3211F08B3281F40E5F1F4FF80172
:103880000F5F1F4F208120532A30C8F3CF018C01D6
:103890000196F80120812032D1F31093351800935E
:1038A00034187801FFEFEF1AFF0AD8017C906AE222
:1038B00070E0C7010F94E535009731F0FC013197B6
:1038C00080818032E1F31182BDE47B1631F0E4E5C2
:1038D0007E1619F0F7E47F12F9C0F70180812FEF0F
:1038E000E21AF20A8032C9F380538A3008F0EEC03F
:1038F0007092A4032091A2033091A3034AE0319671
:10390000429FC001439F900D1124DF0111972C911C
:10391000022E000C330B20533109280F391F8081F0
:1039200080538A3060F33093A3032093A203DF0116
:1039300031968C918032D9F34DE4741689F0409120
:10394000101250911112C0909603D0909703E090FE
:103950009803F0909903812C912C5401839448C0D2
:103960002E31310591F03CF42731310571F02C31C5
:10397000310529F70AC0253731050CF32737310502
:1039800024F0203A53E03507D1F6B0931112A093FA
:1039900010129CC06132F1F161546A3108F079C0B3
:1039A000CF01FC01708101967032D9F380ED870F51
:1039B0008A3008F04DC0CF01A62FB0E014012501D8
:1039C00004C0220C331C441C551C6A95D2F7C22833
:1039D000D328E428F528009709F459C0801BA4587F
:1039E000BC4F8C93808181548A3108F05CC0DF0128
:1039F000FD0131966C916111CDCF5093111240931E
:103A00001012C0929603D0929703E0929803F0921E
:103A100099035CC08DE47812BFCF2032310509F0E4
:103A2000BBCFC0929603D0929703E0929803F09296
:103A30009903F0931112E093101263E270E0CF014A
:103A40000F94E535009709F441C0DC011C923EC09B
:103A50007E3211F481810DC07D3211F07B3269F428
:103A6000818190ED980F9A3008F4A5CF8E3229F419
:103A7000828180538A3008F49ECF4115510511F0A0
:103A80000C941E36AF01415051090C941E3680E053
:103A9000A6CF4115510509F0A5CFAD01A3CF90EDFB
:103AA000980F9A3030F4BF0181918111F8CFCB018A
:103AB00007C093ED980F9230B0F38B32A1F3F7CF9C
:103AC000FC01019660816032D9F391CF21E020930F
:103AD000F5118091A4038D3409F453C4843511F495
:103AE0000C94EA35873411F00C9417368091A203B8
:103AF0009091A3038C31910509F4D5C1BCF48430B5
:103B000091054CF48230910574F597FD36C40E94FE
:103B1000A55D0C9419368430910509F4C0C14A970B
:103B200009F02BC40E949FDF0C9419368A3291054C
:103B300009F41FC444F48D31910509F4B8C24E97BD
:103B400009F4D0C21AC48B35910509F49CC38C3595
:103B5000910509F49CC38A35910509F00EC41092B1
:103B6000A1030C94193620910002222311F40C9425
:103B7000193611E0029709F010E00E945DC5198224
:103B80001A821B821C821D821E821F82188682E579
:103B90000E949B44882309F438C10E9407446B01AA
:103BA0007C01209160183091611840916218509109
:103BB00063182CA33DA34EA35FA38090641890903C
:103BC0006518A0906618B09067188091B510909114
:103BD000B610A091B710B091B81088A799A7AAA75E
:103BE000BBA72091B9103091BA104091BB105091F1
:103BF000BC102CA73DA74EA75FA720E030E0A9018D
:103C0000C701B6010F94752E882309F414C12CA1A5
:103C10003DA14EA15FA168A579A58AA59BA50F949A
:103C2000752E81110BC0A50194016CA57DA58EA5F3
:103C30009FA50F94752E882309F4FDC020E030E085
:103C4000A901C701B6010F94752E881F8827881F08
:103C5000181309C080E090E0A0E8BFE388AF99AFF7
:103C6000AAAFBBAF08C020E030E040E85FEB28AF70
:103C700039AF4AAF5BAF2CA13DA14EA15FA168A5B2
:103C800079A58AA59BA50F94AD3268AB79AB8AABB9
:103C90009BABA50194016CA57DA58EA59FA50F9456
:103CA000AD326CAB7DAB8EAB9FAB28A939A94AA9CD
:103CB0005BA9CA01B9010F94DA2E2B013C012CA992
:103CC0003DA94EA95FA9CA01B9010F94DA2E9B0143
:103CD000AC01C301B2010F94AE320F9419352B0120
:103CE0003C019B01AC0160E070E080E89FE30F9431
:103CF0008A336CAF7DAF8EAF9FAF20E030E040E005
:103D00005FE3C301B2010F94DA2E2B013C01A7013E
:103D10009601C701B6010F94DA2E6B017C01A30155
:103D20009201C301B2010F94DA2E9B01AC01C701CD
:103D3000B6010F94AD320F9419359B01AC0168ADFB
:103D400079AD8AAD9BAD0F94DA2E6B017C0128A56D
:103D500039A54AA55BA56CA17DA18EA19FA10F9459
:103D6000AE3220E030E040E05FE30F94DA2E2B012A
:103D70003C016CA97DA98EA99FA990582CAD3DADA1
:103D80004EAD5FAD0F94DA2E9B01AC01C701B601B9
:103D90000F94DA2E9B01AC01C301B2010F94AE3235
:103DA0002CA13DA14EA15FA10F94AD3269837A830E
:103DB0008B839C832CA53DA54EA55FA5C501B401B1
:103DC0000F94AE3220E030E040E05FE30F94DA2E53
:103DD0002B013C012CAD3DAD4EAD5FAD68A979A97D
:103DE0008AA99BA90F94DA2E9B01AC01C701B601E9
:103DF0000F94DA2E9B01AC01C301B2010F94AE32D5
:103E0000A50194010F94AD3212C089E40E949B4435
:103E1000882331F00E94074469837A838B839C83D3
:103E20008AE40E949B44882331F00E9407446D83FA
:103E30007E838F83988720E030E0A90169817A81B1
:103E40008B819C810F94752E81110BC020E030E096
:103E5000A9016D817E818F8198850F94752E8823AD
:103E6000A1F0412FBE016F5F7F4F85EB90E10E9473
:103E7000388E0E94C8966093DD177093DE1780938A
:103E8000DF179093E0170C94193682E498E10E94B2
:103E9000AD5B87E192E00E94AD5B0C9419360E9405
:103EA000E0890C94193680914F188770873071F42F
:103EB0008FE40E949B44882319F00E94F84303C0BA
:103EC0008FE40E943E4481110C9419360E948A8628
:103ED000B090560480E00E9417C60E94D66611E09A
:103EE0001093070E88E50E943E44982E89E50E94B3
:103EF0003E44082F8AE50E943E44A82E911004C03B
:103F0000011104C0182705C0011102C010E001C052
:103F1000182F0E942D4282E50E949B44882361F065
:103F20000E9407446B017C0120E030E0A9010F945E
:103F3000752E882369F105C0C12CD12CE12C50E4E9
:103F4000F52E111104C0911002C0002391F1C0920E
:103F5000BD10D092BE10E092BF10F092C010209120
:103F600068183091691840916A1850916B18C70110
:103F7000B6010F94D43418165CF419821A821B828D
:103F80001C82BE016F5F7F4F8DEB90E10E94F56C4C
:103F9000111105C0911003C0011106C00AC080E0D4
:103FA0000E9435671123C1F381E00E94356711112A
:103FB00003C0AA2009F469C080914F188370833030
:103FC00071F060E08CE392E00E947CBA81E798E1B6
:103FD0000E94AD5B8DE292E00E94AD5B54C00F94F5
:103FE0005F0A8091681890916918A0916A18B09141
:103FF0006B188093BD109093BE10A093BF10B09328
:10400000C01080E090E0A0EDB2E48093B5109093F2
:10401000B610A093B710B093B81080E090E0AAEA71
:10402000B2E48093B9109093BA10A093BB10B093F0
:10403000BC1064EF71E080E090E00F9436111982BB
:104040001A821B821C82E0906818F0906918009117
:104050006A1810916B182091B9103091BA104091E4
:10406000BB105091BC106091B5107091B61080914A
:10407000B7109091B810DE0111966D010E94166C78
:1040800082E00E9435670F949E110F945F0A809121
:10409000060E8093070E8B2D0E9417C60E94FD6BA3
:1040A00083E080932E020F94A60A0C9419360F9485
:1040B0005E1C81110C94193680915604882371F08E
:1040C0008FE40E949B44882319F00E94F84303C0A8
:1040D0008FE40E943E4481110C9419360E94A7443B
:1040E0000C94193620E030E048EA51E46091601801
:1040F0007091611880916218909163180F94AE329C
:104100006B017C0188E50E949B44882321F00E947A
:1041100007446B017C01CC8EDD8EEE8EFF8E20E09D
:1041200030E040E251E4609164187091651880912C
:104130006618909167180F94AE326B017C0189E587
:104140000E949B44882321F00E9407446B017C015C
:10415000C982DA82EB82FC82BE016F5F7F4FCE01A3
:104160004C960E94803C882311F40C94193680E010
:104170000E9417C60E94D66685E40E949B4488234D
:1041800021F00E94F843182F04C085E40E943E44A9
:1041900011E021E0412FBE016F5F7F4FCE014C96B1
:1041A0000F948F1A6B017C019B01AC010F945A355F
:1041B00081115FC08C8C9D8CAE8CBF8C20E030E078
:1041C000A901C501B4010F94752E87FD05C027E133
:1041D00037EB41E558E304C027E137EB41E558EB05
:1041E000C501B4010F94AE32AB01BC0184E592E08D
:1041F0000E94CC5B89809A80AB80BC8020E030E05C
:10420000A901C501B4010F94752E87FD05C027E1F2
:1042100037EB41E558E304C027E137EB41E558EBC4
:10422000C501B4010F94AE32AB01BC018FE492E042
:104230000E94CC5B20E030E0A901C701B6010F94D9
:10424000752E87FD05C027E137EB41E558E304C033
:1042500027E137EB41E558EBC701B6010F94AE32C9
:10426000AB01BC018AE492E00E94CC5B8AE00E9430
:1042700067920E94FD6B113011F40F949E110F9400
:10428000A60A0C9419362093A1030C94193632E730
:10429000232E32E0332E4FE6C42E44E0D42EE12C00
:1042A000F12C00E010E0F10181911F010E949B447C
:1042B000882309F44DC00E9407442B013C011330B0
:1042C00059F0F701E05BF74E208131814281538143
:1042D0000F94AD322B013C01F701E05AF74E2081DB
:1042E000318142815381C301B2010F94AD324B0140
:1042F0005C012DEB37E346E855EB0F94D43487FD92
:104300000AC02DEB37E346E855E3C501B4010F942D
:10431000752E1816ECF4133051F440926C1850922C
:104320006D1860926E1870926F1801E011C0A501AF
:104330009401D6016D917D918D919C910F94AE3237
:10434000F6016083718382839383812F0E94F566D7
:104350001F5FF4E0CF0ED11C24E0E20EF11C1430FC
:1043600009F0A1CF01110E9403DC0F94A60A0C945E
:1043700019360E94C9480C9419360F94C21C0C942B
:1043800019368091A2039091A3038737910511F408
:104390000C94252C0CF005C18C34910511F40C946F
:1043A000902B0CF06CC08A31910509F4FDC2B4F574
:1043B0008431910509F4AAC284F48131910509F48C
:1043C000A1C22CF4029708F425C20C94E735429759
:1043D00011F40C94DF2B0C94E7358731910509F427
:1043E000C2C274F48531910509F4B9C2469711F03F
:1043F0000C94E7351092C9131092CA130C94193615
:104400008831910509F4C5C2499711F00C94E7353C
:104410001092C9130E94E4B30C9419368F319105A0
:1044200009F489C384F48C31910509F4C5C20CF4F4
:10443000BFC28D31910511F40C9419364E9709F4D1
:10444000C5C20C94E7358033910509F46CC44CF473
:104450008032910509F42CC38A9709F426C40C9480
:10446000E7358133910511F40C948C2B8B34910535
:1044700011F00C94E7350E94ABB30C9419368B36CF
:10448000910511F40C94D32B0CF046C084359105A2
:1044900011F40C94DF2BF4F48135910511F40C9494
:1044A000D72B4CF48D34910511F00C94E7350E9414
:1044B000F9B30C9419368235910511F40C94DB2B69
:1044C0008335910511F00C94E73581E080939D03CD
:1044D0000C9419368836910511F40C94942B74F4CD
:1044E0008535910511F40C94E32B8C35910511F071
:1044F0000C94E7350E9439F40C94193689369105ED
:1045000011F40C94C92B8A36910511F00C94E735FF
:104510000E94A55C0C9419368037910511F40C9417
:10452000A42BB4F48D36910511F40C94982B14F44B
:104530000C94A02B8E36910511F40C949C2B8F3685
:10454000910511F00C94E7350F9418140C9419365A
:104550008337910511F40C94E72B84F4813791058E
:1045600011F40C94AC2B8237910511F00C94E735C3
:104570000E948A860F94A60A0C94193685379105F5
:1045800011F40C94EB2B8637910511F00C94E73560
:10459000009110121091111283E0F12C40E00C9464
:1045A000FA2B803331E0930711F40C94D62E0CF0E3
:1045B0008DC08D3C910511F40C94762CF4F58B395B
:1045C000910511F40C94CF2BB4F48937910511F4B3
:1045D0000C94302C14F40C94292C8C38910511F483
:1045E0000C94B02B8139910511F00C94E7350F94A0
:1045F0008A140C941936893C910511F40C94362CCC
:1046000074F48E3B910511F40C94B42B883C910505
:1046100011F00C94E7350F944B0C0C9419368B3C2D
:10462000910511F40C94582C8C3C910511F00C94CC
:10463000E7350F94D40B0C941936823E910511F492
:104640000C94C32D14F5833D910511F40C94942C16
:1046500084F48E3C910511F00C94E7357AE7C72E6F
:1046600072E0D72EEAE0EE2EEEE0FE2E10E00C9483
:10467000822C8C3D910511F40C944D2D8D3D9105AE
:1046800011F40C945C2D0C94E7358D3251E09507B4
:1046900011F40C94442E6CF48232B1E09B0711F4B7
:1046A0000C94182E8C32914011F40C94252E0C94FD
:1046B000E7358E32F1E09F0711F40C94552F8F32BD
:1046C000914011F40C94992F0C94E735863F31E01A
:1046D000930711F40C9473350CF054C08A3951E0EF
:1046E000950711F40C94A82B54F58039B1E09B0781
:1046F00011F40C946E337CF48336914011F00C94D9
:10470000E73582E498E10E94AD5B8DE398E00E947A
:10471000AD5B0C941936813921E0920711F40C94A9
:1047200071338239914011F00C94E73580E00F9499
:10473000E5110F949E110F94A60A0C9419368C3A29
:1047400041E0940711F40C94BE346CF4843AA1E077
:104750009A0711F40C947733853A914011F40C9434
:104760004E340C94E735843FE1E09E0711F40C943D
:104770007035853F914011F00C94E7350F94E80FA8
:104780000C9419368F3823E0920711F40C94D1352C
:10479000ECF4833543E0940711F40C9489353CF430
:1047A000883F914011F40C9476350C94E7358438A9
:1047B000B3E09B0711F40C94CE358A38934011F086
:1047C0000C94E7350E94364B0C9419368239F3E08D
:1047D0009F0711F40C94E4357CF4803933E093079F
:1047E00011F40C94E1358139934011F00C94E735C4
:1047F0000E94FD490C941936803A53E0950709F45C
:1048000096C1873E934011F00C94E7350E9462B345
:104810000C941936A0901012B090111280E50E94ED
:104820009B44882359F00E946C5E6B017C0111E06F
:10483000672B682B692B31F410E004C010E0C12C09
:10484000D12C760183E50E949B44882311F40C94BB
:1048500022360E94074420E030E04AE754E40F94F7
:10486000DA2E0F94F7336B017C0111110BC0672B0B
:10487000682B692B39F4A114B10421F0F501808172
:10488000811102C010E001C011E00E948A8611234C
:1048900029F061E0C5010E94B6BA05C060E08CE570
:1048A00092E00E947CBA83E08093F51181E08093CE
:1048B000FA0FC114D104E104F104E9F00E94C89692
:1048C000C60ED71EE81EF91E0E94C896DC01CB0159
:1048D0008C199D09AE09BF09B7FD06C00E94EBBD4A
:1048E0001092FA0F0C9419368091FA0F8823B1F3C5
:1048F0000E944AFAE9CF8091FA0F882379F30E9447
:104900004AFAF9CF0E940C5E0C9419368EE792E0B9
:104910000E94AD5B1092121640E050E0BA0185EFA4
:1049200093E10E9491AC8BE1E5EFF3E1DE0111969A
:1049300001900D928A95E1F740E050E0BE016F5F73
:104940007F4F80E090E00E948270CE0101960E942D
:104950007C428FE692E00E94AD5B0C9419360E9477
:104960003B740C941936E0911012F0911112808171
:10497000882329F0803209F410823196F8CF40E084
:1049800061E080911012909111120E94E5720C94D6
:1049900019368091CA13882319F081E08093C913D6
:1049A0000E94ABB30C9419360F9461030C94193622
:1049B0000F94F7020C94193640E060E080911012D9
:1049C000909111120E94E5720C9419368091CA13CD
:1049D000882311F40C9419368DE595E10E9419AFE6
:1049E0008DE595E10E944BAF1092C8131092C7134A
:1049F00000911012109111128091CA13882311F4A2
:104A00000C9419360E94DA72B801CE014C960E94BD
:104A10002E728C01009711F40C9419366C8D7D8DDB
:104A200019821C8222E0AC01CE0101960E9474B270
:104A3000811102C0F12C14C0CE0101960E94F06FCA
:104A40008823C1F361E0CE0101960E94FDAE00977C
:104A500089F325EEDC012C931C820E945564F82E0C
:104A6000CE0101960E947C42FF2089F087EA92E005
:104A70000E94AD5BC8010E94669310920E161092C0
:104A80000F1610921016109211160C9419368FE80A
:104A900092E00E94AD5BF80181918F01882319F0AB
:104AA0000E946792F8CF8EE20E9467920C941936AA
:104AB0008091C91381110E948A868091CA1388232C
:104AC00011F40C94193680E50E949B44882319F058
:104AD0000E94F84303C080E50E943E44182F482FEF
:104AE00061E080911012909111120E94E57283E5AD
:104AF0000E949B44882381F00E94D743AB01BC01F4
:104B000040930E1650930F16609310167093111663
:104B10008DE595E10E9491AC8091CA13882319F02C
:104B200081E08093C91311110C94193639CF0F9479
:104B3000EC020C9419360E9477B32CE3C22ED12CD0
:104B4000E12CF12CA70196010F945032B62EA72E1E
:104B5000CA01B901A70196010F9450326B017C0183
:104B6000CA01B90128E130E040E050E00F94503232
:104B70002B013C01C9016DE671E00F9476358E0181
:104B80000F5F1F4F61157105E1F0AF92BF92DF9289
:104B9000CF925F924F929F938F937F936F938DED00
:104BA00092E09F938F931F930F930F940E2E2DB728
:104BB0003EB7225F3F4F0FB6F8943EBF0FBE2DBFEA
:104BC00062C00097D1F0AF92BF92DF92CF925F9216
:104BD0004F929F938F938DEC92E09F938F931F93AF
:104BE0000F930F940E2E4DB75EB7445F5F4F0FB615
:104BF000F8945EBF0FBE4DBF46C04114510461041E
:104C00007104B9F0AF92BF92DF92CF925F924F9250
:104C100081EC92E09F938F931F930F930F940E2E2E
:104C20008DB79EB70A960FB6F8949EBF0FBE8DBF84
:104C30002AC0C114D104E104F104A9F0AF92BF92DB
:104C4000DF92CF9289EB92E09F938F931F930F9304
:104C50000F940E2EADB7BEB718960FB6F894BEBF20
:104C60000FBEADBF10C0AF92BF9285EB92E09F9395
:104C70008F931F930F930F940E2E0F900F900F9002
:104C80000F900F900F9060E0C8010E94B6BA81E7C4
:104C900098E10E94AD5BB80181EF92E00E94E85B71
:104CA0008AE00E9467920C94193683E50E949B4427
:104CB000882311F40C9419360E94E743E82E80E50E
:104CC0000E949B44882339F00E94D7438B0177FFD1
:104CD00004C00C9419360DE010E0802F0F942123AE
:104CE000882351F082E498E10E94AD5B80E095E07A
:104CF0000E94AD5B0C94193661E0802F0E948D9567
:104D00006E2D802F0E945E95F12CB701802F0E949E
:104D1000C995B9E00B130C941936F0923218E09251
:104D200031180C941936EDB7FEB7A196FFAFEEAF70
:104D3000A1970F945E1C8111E4C486E50E949B44F8
:104D4000882341F00E94E7438CA3853030F089E648
:104D500094E089C0F1E0FCA303C02CA1121624F456
:104D600089E494E00E94AD5B80E50E949B44882327
:104D700021F00E94E743182F01C01AE08CEF810F49
:104D80008F3218F085E294E06EC085E40E949B4467
:104D9000882349F00E94F843882349F031E0669661
:104DA0003FAF669708C085E40E943E44F5CF42E0DD
:104DB00066964FAF66978090641890906518A090A3
:104DC0006618B090671820E030E048EA51E460913E
:104DD00060187091611880916218909163180F9417
:104DE000AE326B017C0188E50E949B44882321F050
:104DF0000E9407446B017C01C8A2D9A2EAA2FBA2CF
:104E000020E030E040E251E4C501B4010F94AE323D
:104E10006B017C0189E50E949B44882321F00E945C
:104E200007446B017C01CC8EDD8EEE8EFF8EBE01C1
:104E3000645E7F4FCE0180960E94803C61968FAF6A
:104E40006197811103C08DE094E00DC08CE40E9455
:104E50003E44082F882381F00E94E7438CA78031CD
:104E600028F08AED93E00E94AD5B4BC45CA5513005
:104E700021F482E08CA701C01CA683E50E949B441C
:104E8000882349F00E94F843882349F001110AC0A1
:104E900097E09CA707C083E50E943E44F5CF61964A
:104EA0001FAE6197ACA1A33024F080EC93E00E9488
:104EB000AD5BB0915604A696BFAFA69780E00E9466
:104EC00017C60E94D666E12F012E000CFF0BA89694
:104ED000FFAFEEAFA8972DB73EB744E014022019FC
:104EE000310911240FB6F8943EBF0FBE2DBF8DB708
:104EF0009EB701966F969FAF8EAF6F972CA1669667
:104F00004FAD6697BE01645E7F4FCE0180960F94D1
:104F10008F1A9B01AC010F945A3581115DC30E9419
:104F2000C896611571058105910511F00F94E72967
:104F300093EF21969FAF2197AFE42596AFAF2597CA
:104F4000B3EC3B2E07EC202EB3EFB8ABEFE4ECABA9
:104F5000F3ECF8AF27E42CAF29961FAE299765969E
:104F60001CAE1DAE1EAE1FAE659760961CAE1DAE8C
:104F70001EAE1FAE60973CA5832F90E0AC01415060
:104F80005109AA965FAF4EAFAA975CA15250AD9659
:104F90005FAFAD97812F110F990BAA0BBB0BE49656
:104FA0008CAF9DAFAEAFBFAFE4972996FFAD299709
:104FB000EF2FF0E06D96FFAFEEAF6D97A8962EAD98
:104FC0003FADA897E217F3070CF004C39CA591111D
:104FD00034C020E066964FAD6697BE01645E7F4F99
:104FE000CE0180960F948F1AF62E072F182FD92EE8
:104FF0006D96EEADFFAD6D97EE0FFF1FEE0FFF1F2D
:105000006F96AEADBFAD6F97EA0FFB1F862F902F47
:10501000A12FBD2D80839183A283B3832F2D302FA9
:10502000412F5D2D6F2D702F812F9D2D0F945A359F
:10503000882309F4B7C110E0F0C26AE070E080E0B4
:1050400090E00E940F940F947B2E20E030E040EA25
:1050500050E40F94D43418161CF001E010E002C0A4
:105060000FEF1FEF68E671E080E090E00E940F9480
:105070000F947B2E68A779A78AA79BA765E170E0AC
:1050800080E090E00E940F946B5F7F4F8F4F9F4FA7
:105090000F947B2E6A966CAF7DAF8EAF9FAF6A97F1
:1050A000BCA1B430ECF0AB01BC018EEA93E00E94ED
:1050B000CC5B48A559A56AA57BA583EA93E00E942D
:1050C000CC5B86E993E00E94AD5B0130110521F4D1
:1050D0008DE893E00E94AD5B82E893E00E94AD5BB7
:1050E0006B961FAE6B979801110F440B550BA5964D
:1050F0002CAF3DAF4EAF5FAFA5976B96AFAD6B9743
:105100008A2F90E0AA96EEADFFADAA978E179F0763
:105110000CF05FCF61963FAD6197332389F0A59680
:105120006CAD7DAD8EAD9FADA5970F947B2E9B0191
:10513000AC010F94AE3220E030E040E952E41EC0F2
:1051400064E170E080E090E00E940F944B015C010C
:10515000A5966CAD7DAD8EAD9FADA5970F947B2EC2
:105160006B017C01C501B401675E7F4F8F4F9F4F7C
:105170000F947B2E9B01AC01C701B6010F94DA2E70
:105180009B01AC0168A579A58AA59BA50F94AE32B9
:1051900068A779A78AA79BA720E030E044EB53E4F7
:1051A00068A579A58AA59BA50F94D43418165CF43C
:1051B00020E030E044EB53E468A579A58AA59BA5DF
:1051C0000F94AD32E5CF20E030E0A90168A579A5C4
:1051D0008AA59BA50F94752E87FF0FC020E030E0B5
:1051E00044EB53E468A579A58AA59BA50F94AE323C
:1051F00068A779A78AA79BA7E6CF2BED3FE049E4F4
:1052000050E468A579A58AA59BA50F94DA2E20E025
:1052100030E044E353E40F948A336B017C010F9434
:1052200087332B013C0120E030E048EA51E468A1DB
:1052300079A18AA19BA10F94AD324B015C016A96C2
:105240002CAD3DAD4EAD5FAD6A97C301B2010F9479
:10525000DA2E9B01AC01C501B4010F94AE324B01B3
:105260005C01C701B6010F940F352B013C0120E012
:1052700030E040E251E46C8D7D8D8E8D9F8D0F94DA
:10528000AD326B017C016A962CAD3DAD4EAD5FAD8C
:105290006A97C301B2010F94DA2E9B01AC01C701DA
:1052A000B6010F94AE322B013C0120E030E0A901A1
:1052B000C501B4010F94752E87FD11C020E030E0C8
:1052C0004AE753E4C501B4010F94D434181654F4DA
:1052D000812C912C7AE7A72E73E4B72E03C0812C82
:1052E000912C540120E030E04CE552ECC301B201B6
:1052F0000F94752E87FD11C020E030E042E553E4A5
:10530000C301B2010F94D43418166CF4412C512C03
:1053100052E5652E53E4752E06C0412C512C6CE5E8
:10532000662E62EC762E4CA14430FCF088E793E0C8
:105330000E94AD5BB501A40185E793E00E94CC5BC0
:10534000B301A20182E793E00E94CC5B4091681810
:105350005091691860916A1870916B188FE693E00C
:105360000E94CC5B8AE00E94679219821A821B829B
:105370001C82E0906818F090691800916A181091EA
:105380006B18CE0101966C01A3019201C501B40115
:105390000E94166C6B969FAD6B979F5F6B969FAF4D
:1053A0006B97ABCE412C512C3201E12C6F96EEADB8
:1053B000FFAD6F9724E0E29EE00DF11D11242081E6
:1053C000318142815381C301B2010F94AE322B016E
:1053D0003C01E39429963FAD29973E1538F76D9629
:1053E0008EAC9FAC6D974FEF841A940A092C000C79
:1053F000AA08BB08C501B4010F947B2E68A779A742
:105400008AA79BA79B01AC01C301B2010F948A3309
:1054100060966CAF7DAF8EAF9FAF60972F2D302F12
:10542000412F5D2D68A97CA988AD9CAD0F94D43423
:10543000181624F4F8AA0CAB18AFDCAE2F2D302FC1
:10544000412F5D2D21966FAD219725967FAD259734
:10545000832D922D0F94752E87FF08C02196FFAEE5
:10546000219725960FAF2597312E2D2C412C512CAD
:105470003201E12C6F96EEADFFAD6F9754E0E59EE3
:10548000E00DF11D112460962CAD3DAD4EAD5FAD2C
:10549000609760817181828193810F94AD329B010D
:1054A000AC010F94DA2E9B01AC01C301B2010F9441
:1054B000AE322B013C01E39429968FAD29978E15CE
:1054C000C8F628A539A54AA55BA5C301B2010F946A
:1054D0008A330F94193565966CAF7DAF8EAF9FAF51
:1054E0006597AD969FADAD979E3708F06BC0C5012F
:1054F000B4010E94D7928AE693E00E94AD5BE496E5
:105500006CAD7DAD8EAD9FADE4970E94D79284E6E1
:1055100093E00E94AD5B43E06F2D702F812F9D2D96
:105520000E94F192ACA1A23009F449C08CE593E04D
:105530000E94AD5B44E060966CAD7DAD8EAD9FADDD
:1055400060970E94F19283E593E00E94AD5B46E094
:1055500065966CAD7DAD8EAD9FAD65970E94F19265
:105560008CE493E00E94AD5B43E068A97CA988AD20
:105570009CAD0E94F19285E493E00E94AD5B43E014
:1055800021966FAD219725967FAD2597832D922D7E
:105590000E94F1928CE393E00E94AD5B28A93CA9A4
:1055A00048AD5CAD21966FAD219725967FAD2597CF
:1055B000832D922D0F94AD3243E00E94F1928AE048
:1055C0000E9467922996BFAD2997BF5F2996BFAF0A
:1055D0002997EBCC11E021C033EF21963FAF219703
:1055E0004FE425964FAF259733EC332E47EC242E0E
:1055F00053EF58AB8FE48CAB93EC98AFA7E4ACAF10
:1056000010E065961CAE1DAE1EAE1FAE659760968F
:105610001CAE1DAE1EAE1FAE609780E00F94E5116C
:10562000112309F45AC081E393E00E94AD5BBCA151
:105630001B160CF03FC08AE293E00E94AD5B46E08F
:1056400060966CAD7DAD8EAD9FAD60970E94F1927E
:1056500083E293E00E94AD5B43E068A97CA988AD3A
:105660009CAD0E94F1928CE193E00E94AD5B43E01F
:1056700021966FAD219725967FAD2597832D922D8D
:105680000E94F19283E193E00E94AD5B28A93CA9BE
:1056900048AD5CAD21966FAD219725967FAD2597DE
:1056A000832D922D0F94AD3243E00E94F1928AE057
:1056B0000E9467928EEF92E00E94AD5B46E0659695
:1056C0006CAD7DAD8EAD9FAD65970E94F1928AE085
:1056D0000E9467928AE00E9467920E94FD6BA696E4
:1056E0008FADA6970E9417C60F94A60AA196EEAD9D
:1056F000FFADA1970FB6F894FEBF0FBEEDBF0C949F
:105700001936A1962EAD3FADA1970FB6F8943EBFC6
:105710000FBE2DBF0C9419360E94D7F40C94193685
:105720000E94E4B30C9419360F94610E0C94193650
:105730000F94920C0C9419360E940EB40C941936E6
:10574000109239020C94193681E994E00E94EFF925
:105750000E946BF80C9419360F946A140C94193645
:105760000E942CB40C94193680915C0483FF02C013
:105770000C94193683E50E949B448CAF81110C94E4
:10578000273682E50E949B4481110C9427360C94A5
:1057900019360E941EB41092F5110C942B3A0E94F7
:1057A000248A0C9419360E94965C0C9419360F9436
:1057B0008A0E0C94193610929D030C9419360E948F
:1057C000AE5D0C9419360E9485440C9419360E94E3
:1057D000A9F80C94193660E0809110129091111282
:1057E0000E94B6BA0C941936D8019C91292F2B7FB0
:1057F000213419F08150C1F717C011962C91213333
:10580000C9F7913421F0953421F441E002C0FF241E
:10581000F39498012E5F3F4F89012F5F3F4FF801AE
:1058200090819032C9F3E6CF442321F081E798E1DB
:105830000E94AD5BFF2021F08CEB94E00E94AD5BF9
:10584000C8010E9466930C9419360E946D5C0C94FA
:10585000193681E08093070E8093060E0C9419365A
:105860001092070E1092060E0C941936BDEBEB2E1B
:10587000B7E1FB2E06E712E084E0D82ED00ED80167
:105880008D918D010E943E44882349F00E94074477
:105890000F94F733F7016083718382839383F4E07D
:1058A000EF0EF11CD012EBCF0E940D760C9419363E
:1058B000FDECEF2EF7E1FF2E06E712E0A4E0DA2E72
:1058C000D00ED8018D918D010E943E44882339F07D
:1058D0000E940744F7016083718382839383F4E01D
:1058E000EF0EF11CD012EDCF0C9419360F945E0B15
:1058F0000C9419361F5FF4E0EF0EF11C133011F415
:105900000C94B521D6018D916D010E943E448823EF
:1059100089F30E940744F701608371838283938334
:10592000812F0E94F566E6CF81E798E10E94AD5B8A
:1059300088EE94E00E94AD5B83E50E943E4488239C
:1059400021F00E94F84380932F0280912F02811151
:1059500003C080EC94E002C084EC94E00E94AD5B54
:1059600080EE94E00E94AD5B209150183091511868
:1059700040915218509153186091630470916404DF
:1059800080916504909166040F94AE32AB01BC0126
:105990008EED94E00E94CC5B209154183091551804
:1059A000409156185091571860916704709168049F
:1059B0008091690490916A040F94AE32AB01BC01EE
:1059C0008BED94E00E94CC5B2091581830915918CF
:1059D00040915A1850915B1860916B0470916C045F
:1059E00080916D0490916E040F94AE32AB01BC01B6
:1059F00088ED94E00E94CC5B80ED94E00E94AD5B6A
:105A000020915018309151184091521850915318CC
:105A100060912202709123028091240290912502CC
:105A20000F94AE32AB01BC018EEC94E00E94CC5BD3
:105A3000209154183091551840915618509157188C
:105A4000609126027091270280912802909129028C
:105A50000F94AE32AB01BC018BEC94E00E94CC5BA6
:105A6000209158183091591840915A1850915B184C
:105A700060912A0270912B0280912C0290912D024C
:105A80000F94AE32AB01BC0188EC94E00E94CC5B79
:105A90008AE00E9467920C94193683E50E949B4429
:105AA000882311F40C9419360E94D7437093310265
:105AB000609330020C9419360E94E2C581110C9457
:105AC000193683E50E949B448823E1F10091E51794
:105AD00010E00E94D743000F111FF801E15CFD4F59
